:020000040800F2
:1000000068060220A9020008B1020008B302000835
:10001000B5020008B7020008B9020008000000009D
:10002000000000000000000000000000BB0200080B
:10003000BD02000800000000BF020008C102000865
:10004000C3020008C3020008C3020008C30200087C
:10005000C3020008C302000869030008C3020008C5
:10006000C3020008C3020008C3020008C30200085C
:10007000C3020008C3020008C3020008C30200084C
:10008000C3020008C3020008C3020008C30200083C
:10009000C3020008C3020008C3020008C30200082C
:1000A000C3020008C3020008C3020008C30200081C
:1000B000C3020008C3020008C3020008C30200080C
:1000C000C3020008C3020008C3020008C3020008FC
:1000D000C3020008C3020008C3020008C3020008EC
:1000E000C3020008C3020008C3020008C3020008DC
:1000F000C3020008C3020008C3020008C3020008CC
:10010000C3020008C3020008C3020008C3020008BB
:10011000C3020008C3020008C3020008C3020008AB
:10012000C3020008C3020008C3020008C30200089B
:10013000C3020008C3020008C3020008C30200088B
:10014000C3020008C3020008C3020008C30200087B
:10015000C3020008C3020008C3020008C30200086B
:10016000C3020008C3020008C3020008C30200085B
:10017000C3020008C3020008C30200080000000018
:10018000C3020008C3020008C3020008C30200083B
:10019000C3020008C3020008C3020008C30200082B
:1001A000C3020008C3020008C3020008C30200081B
:1001B000C3020008C3020008C3020008C30200080B
:1001C000C3020008C302000800000000C3020008C8
:1001D000C3020008C3020008C3020008C3020008EB
:1001E000C3020008C3020008C3020008C3020008DB
:1001F000C3020008C302000800F002F800F044F84F
:1002000014A696E8000CB244B344DA4501D100F0DC
:100210003BF8BAE80F000FA696E83000A5EB0405FE
:1002200004EB0607AAEB0704A7F101074FEA15152F
:100230004FEA3414A4F10104AC4201D300F024F8D5
:1002400013F0010F18BFFB1A43F0010300F001F88F
:10025000DBE71847A0050000B0050000704700006C
:100260000023002400250026103A28BF78C1FBD8BF
:10027000520728BF30C148BF0B6070471FB500F060
:100280009FFA1FBD10B510BD00F031F81146FFF701
:10029000F5FF00F085FA00F04FF803B4FFF7F2FF26
:1002A00003BC00F057F800000948804709480047A0
:1002B000FEE7FEE7FEE7FEE7FEE7FEE7FEE7FEE716
:1002C000FEE7FEE704480549054A064B7047000073
:1002D000F1030008F9010008680002206806022006
:1002E0006802022068020220704770477047754616
:1002F00000F02CF8AE4605006946534620F0070092
:10030000854618B020B5FFF7DDFFBDE820404FF06F
:1003100000064FF000074FF000084FF0000BAC460E
:10032000ACE8C009ACE8C009ACE8C009ACE8C00959
:1003300021F007018D46704710B50446AFF30080E9
:100340002046BDE81040FFF7A8BF000000487047F6
:100350000000022001491820ABBEFEE72600020083
:10036000704700000000000080B543F61440C4F25E
:1003700001000068C007D0B3FFE743F61441C4F2A0
:100380000101086840F0010008601020C4F202007A
:100390000068C007A8B9FFE740F26001C2F202019D
:1003A0000120087040F21441C4F20201086840F0D4
:1003B0000100086040F2DA70C0F6000000F008F9B1
:1003C00014E040F26001C2F202010020087040F225
:1003D0001441C4F20201086820F00100086040F2F4
:1003E000E670C0F6000000F0F3F8FFE7FFE780BD1D
:1003F0004EF68851CEF20001086840F470000860A3
:10040000704700000000000080B582B0019000201D
:100410000090FFE700980199884209D2FFE74FF466
:100420007A5000F025F8FFE7009801300090F1E7DE
:1004300002B080BD0000000080B582B08DF80700DA
:1004400040F61401C4F20201086820F4007008604C
:100450009DF80700000900F0DBF89DF8070000F0A8
:100460000F0000F0D5F802B080BD000000000000D1
:1004700081B00090009801384EF21401CEF20001D4
:1004800008604EF21801CEF2000100200860FFE77C
:100490004EF21000CEF20000006800F4803100201F
:1004A000B0EB114F01D1FFE7F2E701B07047000058
:1004B00080B582B001900198012804D1FFE7802027
:1004C000FFF7BAFF08E00198022804D1FFE7C02037
:1004D000FFF7B2FFFFE7FFE702B080BD00000000BA
:1004E00080B543F63001C4F20201086840F0010013
:1004F00008600021C4F20201086820F003000860CF
:100500000C21C4F20201086820F0030008600821F1
:10051000C4F20201086820F0030008600421C4F25C
:100520000201086820F00100086040F20041C4F2B6
:100530000201086820F003000860086840F001002C
:10054000086040F20441C4F20201086820F0010092
:10055000086040F20841C4F20201086840F003005C
:10056000086040F20C41C4F20201086820F0030068
:10057000086043F64401C4F20201086840F4804078
:10058000086043F60801C4F20101086820F00F007A
:1005900008600868086043F60041C4F20101086879
:1005A00040F00100086043F60C41C4F20101086804
:1005B00040F00100086043F60841C4F201010868F8
:1005C00040F001000860062000F0D2F880BD000075
:1005D00080B582B001900120FFF76AFF8020FFF70D
:1005E0002BFF00200090FFE701980099405C50B17C
:1005F000FFE701980099405C00F09EF8FFE7009843
:1006000001300090F0E702B080BD00000000000063
:1006100080B584B08DF80F0040F61401C4F20201D9
:100620000191086840F4807008600A20FFF7ECFE32
:100630001421C4F20201086820F0F0009DF80F2098
:1006400002F00F0240EA0210086001200290FFF75A
:10065000DBFE019A0298116821F480711160FFF7A6
:10066000D3FE04B080BD000080B543F63001C4F273
:100670000201086840F0070008604EF21401CEF253
:1006800000016FF07F4008604EF21001CEF20001D1
:10069000086840F0050008600021C4F20201086803
:1006A00040F4AA4008600421C4F20201086808600E
:1006B0000821C4F20201086840F47F4008600C2160
:1006C000C4F20201086840F42A40086040F60001C4
:1006D000C4F20201086840F4A020086040F604015A
:1006E000C4F202010868086040F60801C4F2020181
:1006F00008684FF60072C0F20F021043086040F61F
:100700000C01C4F2020108684AF60022C0F20A0293
:10071000104308600220FFF78FFE0620FFF78CFED3
:100720000F20FFF789FE2820FFF786FE0120FFF744
:1007300083FE80BD0000000080B582B08DF8070008
:1007400040F61401C4F20201086840F40070086029
:100750009DF807000009FFF75BFF9DF8070000F018
:100760000F00FFF755FF02B080BD00000000000041
:1007700081B08DF803009DF9030000280ED4FFE737
:100780009DF9031001F01F02012090404A094EF22A
:100790000011CEF2000141F82200FFE701B07047DE
:1007A00080B582B000200190FFF75EFFFFF798FE52
:1007B00040F2E670C0F60000FFF70AFFFFE7FEE731
:1007C000F1EE100A4FF6FF71C0F2C03120EA0100CD
:1007D00040F04070E1EE100A70474F424A206474C6
:1007E000633A207369004F424A206474633A206E72
:1007F0006F000000040800080000022068060000E6
:04080000600200088A
:04000005080002A944
:00000001FF
