:020000040800F2
:1000000070060220C5020008CD020008CF020008D9
:10001000D1020008D3020008D50200080000000049
:10002000000000000000000000000000D7020008EF
:10003000D902000800000000DB020008DD02000811
:10004000DF020008DF020008DF020008DF0200080C
:10005000DF020008DF020008DF020008DF020008FC
:10006000DF020008DF020008DF020008DF020008EC
:10007000DF020008DF020008DF020008DF020008DC
:10008000DF020008DF020008DF020008DF020008CC
:10009000DF020008DF020008DF020008DF020008BC
:1000A000DF020008DF020008DF020008DF020008AC
:1000B000DF020008DF020008DF020008DF0200089C
:1000C000DF020008DF020008DF020008DF0200088C
:1000D000DF020008DF020008DF020008DF0200087C
:1000E000DF020008DF020008DF020008DF0200086C
:1000F000DF020008DF020008DF020008DF0200085C
:10010000DF020008DF020008DF020008DF0200084B
:10011000DF020008DF020008DF020008DF0200083B
:10012000DF020008DF020008DF020008DF0200082B
:10013000DF020008DF020008DF020008DF0200081B
:10014000DF020008DF020008DF020008DF0200080B
:10015000DF020008DF020008DF020008DF020008FB
:10016000DF020008DF020008DF020008DF020008EB
:10017000DF020008DF020008DF02000800000000C4
:10018000DF020008DF020008DF020008DF020008CB
:10019000DF020008DF020008DF020008DF020008BB
:1001A000DF020008DF020008DF020008DF020008AB
:1001B000DF020008DF020008DF020008DF0200089B
:1001C000DF020008DF02000800000000DF02000874
:1001D000DF020008DF020008DF020008DF0200087B
:1001E000DF020008DF020008DF020008DF0200086B
:1001F000DF020008DF02000800F002F800F052F809
:1002000014A696E8000CB244B344DA4501D100F0DC
:1002100049F8BAE80F000FA696E83000A5EB0405F0
:1002200004EB0607AAEB0704A7F101074FEA15152F
:100230004FEA3414A4F10104AC4201D300F032F8C7
:1002400013F0010F18BFFB1A43F0010300F001F88F
:10025000DBE71847F403000014040000103A24BF41
:1002600078C878C1FAD8520724BF30C830C144BF1B
:1002700004680C60704700007047000000230024F1
:1002800000250026103A28BF78C1FBD8520728BFA6
:1002900030C148BF0B6070471FB500F0C8F91FBDE3
:1002A00010B510BD00F031F81146FFF7F5FF00F072
:1002B0009BF900F04FF803B4FFF7F2FF03BC00F026
:1002C00057F800000948804709480047FEE7FEE765
:1002D000FEE7FEE7FEE7FEE7FEE7FEE7FEE7FEE7F6
:1002E00004480549054A064B704700008103000891
:1002F000F90100087000022070060220700202203E
:1003000070020220704770477047754600F02CF865
:10031000AE4605006946534620F00700854618B0F2
:1003200020B5FFF7DDFFBDE820404FF000064FF09D
:1003300000074FF000084FF0000BAC46ACE8C009D6
:10034000ACE8C009ACE8C009ACE8C00921F007017D
:100350008D46704710B50446AFF300802046BDE8D7
:100360001040FFF7A8BF00000048704710000220AF
:1003700001491820ABBEFEE72600020070470000CE
:100380004EF68851CEF20001086840F47000086013
:10039000704700000000000080B582B0019000208E
:1003A0000090FFE700980199884209D2FFE74FF4D7
:1003B0007A5000F025F8FFE7009801300090F1E74F
:1003C00002B080BD0000000080B582B08DF807004B
:1003D00040F61401C4F20201086820F400700860BD
:1003E0009DF80700000900F02BF89DF8070000F0C9
:1003F0000F0000F025F802B080BD000000000000F2
:1004000081B00090009801384EF21401CEF2000144
:1004100008604EF21801CEF2000100200860FFE7EC
:100420004EF21000CEF20000006800F4803100208F
:10043000B0EB114F01D1FFE7F2E701B070470000C8
:1004400080B584B08DF80F0040F61401C4F20201AB
:100450000191086840F4807008600A20FFF79CFF53
:100460001421C4F20201086820F0F0009DF80F206A
:1004700002F00F0240EA0210086001200290FFF72C
:100480008BFF019A0298116821F480711160FFF7C7
:1004900083FF04B080BD000080B543F63001C4F294
:1004A0000201086840F0070008604EF21401CEF225
:1004B00000016FF07F4008604EF21001CEF20001A3
:1004C000086840F0050008600021C4F202010868D5
:1004D00040F4AA4008600421C4F2020108680860E0
:1004E0000821C4F20201086840F47F4008600C2132
:1004F000C4F20201086840F42A40086040F6000196
:10050000C4F20201086840F4A020086040F604012B
:10051000C4F202010868086040F60801C4F2020152
:1005200008684FF60072C0F20F021043086040F6F0
:100530000C01C4F2020108684AF60022C0F20A0265
:10054000104308600220FFF73FFF0620FFF73CFF43
:100550000F20FFF739FF2820FFF736FF0120FFF7B4
:1005600033FF40F20041C4F20201086820F00300AA
:100570000860086840F00100086040F20441C4F2DD
:100580000201086820F00100086040F20841C4F24E
:100590000201086840F00300086040F20C41C4F218
:1005A0000201086820F00300086080BD0000000020
:1005B00080B582B08DF8070040F61401C4F2020144
:1005C000086840F4007008609DF807000009FFF714
:1005D00037FF9DF8070000F00F00FFF731FF02B072
:1005E00080BD00000000000080B584B000200190B4
:1005F0000390FFF751FF0120FFF7E6FE8020FFF791
:10060000E3FE01980290FFE702980B280DDCFFE75C
:10061000029940F20000C2F20200405CFFF7C8FFFE
:10062000FFE7029801300290EEE7FFE7FEE7F1EE08
:10063000100A4FF6FF71C0F2C03120EA010040F00D
:100640004070E1EE100A70476806000800000220C2
:10065000100000005C02000878060008100002206C
:10066000600600007C02000843524F4E4F4D455437
:08067000524F3A202020200027
:04000005080002C528
:00000001FF
