:020000040800F2
:1000000000070220C5020008CD020008CF02000848
:10001000D1020008D3020008D50200080000000049
:10002000000000000000000000000000D7020008EF
:10003000D902000800000000DB020008DD02000811
:10004000DF020008DF020008DF020008DF0200080C
:10005000DF020008DF020008DF020008DF020008FC
:10006000DF020008DF020008DF020008DF020008EC
:10007000DF020008DF020008DF020008DF020008DC
:10008000DF020008DF020008DF020008DF020008CC
:10009000DF020008DF020008DF020008DF020008BC
:1000A000DF020008DF020008DF020008DF020008AC
:1000B000DF020008DF020008DF020008DF0200089C
:1000C000DF020008DF020008DF020008DF0200088C
:1000D000DF020008DF020008DF020008DF0200087C
:1000E000DF020008DF020008DF020008DF0200086C
:1000F000DF020008DF020008DF020008DF0200085C
:10010000DF020008DF020008DF020008DF0200084B
:10011000DF020008DF020008DF020008DF0200083B
:10012000DF020008DF020008DF020008DF0200082B
:10013000DF020008DF020008DF020008DF0200081B
:10014000DF020008DF020008DF020008DF0200080B
:10015000DF020008DF020008DF020008DF020008FB
:10016000DF020008DF020008DF020008DF020008EB
:10017000DF020008DF020008DF02000800000000C4
:10018000DF020008DF020008DF020008DF020008CB
:10019000DF020008DF020008DF020008DF020008BB
:1001A000DF020008DF020008DF020008DF020008AB
:1001B000DF020008DF020008DF020008DF0200089B
:1001C000DF020008DF02000800000000DF02000874
:1001D000DF020008DF020008DF020008DF0200087B
:1001E000DF020008DF020008DF020008DF0200086B
:1001F000DF020008DF02000800F002F800F052F809
:1002000014A696E8000CB244B344DA4501D100F0DC
:1002100049F8BAE80F000FA696E83000A5EB0405F0
:1002200004EB0607AAEB0704A7F101074FEA15152F
:100230004FEA3414A4F10104AC4201D300F032F8C7
:1002400013F0010F18BFFB1A43F0010300F001F88F
:10025000DBE71847B8050000D8050000103A24BFB6
:1002600078C878C1FAD8520724BF30C830C144BF1B
:1002700004680C60704700007047000000230024F1
:1002800000250026103A28BF78C1FBD8520728BFA6
:1002900030C148BF0B6070471FB500F0AAFA1FBD00
:1002A00010B510BD00F031F81146FFF7F5FF00F072
:1002B000A7F800F04FF803B4FFF7F2FF03BC00F01B
:1002C00057F800000948804709480047FEE7FEE765
:1002D000FEE7FEE7FEE7FEE7FEE7FEE7FEE7FEE7F6
:1002E00004480549054A064B704700008103000891
:1002F000F90100080001022000070220000302208B
:1003000000030220704770477047754600F02CF8D4
:10031000AE4605006946534620F00700854618B0F2
:1003200020B5FFF7DDFFBDE820404FF000064FF09D
:1003300000074FF000084FF0000BAC46ACE8C009D6
:10034000ACE8C009ACE8C009ACE8C00921F007017D
:100350008D46704710B50446AFF300802046BDE8D7
:100360001040FFF7A8BF000000487047A00002201F
:1003700001491820ABBEFEE72600020070470000CE
:100380004EF68851CEF20001086840F47000086013
:10039000704700000000000080B582B0019000208E
:1003A0000090FFE700980199884209D2FFE74FF4D7
:1003B0007A5000F009F8FFE7009801300090F1E76B
:1003C00002B080BD0000000081B0009000980138AC
:1003D0004EF21401CEF2000108604EF21801CEF286
:1003E000000100200860FFE74EF21000CEF200008E
:1003F0000068C003002801D4FFE7F5E701B07047AB
:1004000080B584B00020039043F63001C4F20201AD
:10041000086840F07F0008600021C4F2020108680B
:100420004FF6FF7290430860086845F25553184331
:10043000086040F20041C4F20201086820F0FF00A9
:10044000086008681843086040F60001C4F2020121
:1004500008686FF30F000860086840F055300860C6
:1004600040F60041C4F20201086820F0FF00086075
:10047000086845F25553C0F205031843086041F27D
:100480000001C4F20201086820F0FF00086008685B
:100490001843086041F20041C4F2020108686FF39A
:1004A0000F00086008681843086041F60001C4F2B4
:1004B0000201086820F0FF0008600868184308601F
:1004C0000421C4F2020108686FF30F00086040F2D3
:1004D0000441C4F20201086840F2FF139843086027
:1004E00040F60401C4F2020108686FF30F000860CF
:1004F00040F60441C4F2020108686FF30F0008607F
:1005000041F20401C4F2020108686FF30F000860B1
:1005100041F20441C4F20201086840F2FF339843FB
:10052000086041F60401C4F2020108686FF3090093
:1005300008600821C4F2020108681043086040F214
:100540000841C4F2020108681043086040F608013F
:10055000C4F2020108681043086040F60841C4F282
:100560000201086840F0FF00086041F20801C4F28F
:100570000201086840F6FF721043086041F208412A
:10058000C4F2020108681043086041F60801C4F291
:1005900002010868104308600C21C4F202010868D7
:1005A00020F0FF00086040F20C41C4F2020108682C
:1005B00020F00300086040F60C01C4F20201086854
:1005C0006FF30F00086040F60C41C4F202010868A6
:1005D00020F0FF00086041F20C01C4F2020108683B
:1005E00020F0FF00086041F20C41C4F202010868EB
:1005F0009043086041F60C01C4F2020108686FF3F1
:100600000B0008604EF21401CEF200016FF07F4043
:1006100008604EF21001CEF20001086840F00500BB
:100620000860FFE71820029000200190FFE7019882
:100630000299884280F2DC80FFE700200090FFE70B
:100640000098072800F3CF80FFE70198072819DCFE
:10065000FFE7009940F22000C2F2020050F82100AA
:1006600041F21441C4F202010860009940F26000B6
:10067000C2F2020050F8210040F61401C4F2020157
:1006800008603CE001980F281CDCFFE7009940F26D
:100690004000C2F2020050F8210041F21441C4F2BD
:1006A00002010860009940F28000C2F2020050F896
:1006B000210001990839884040F61401C4F2020172
:1006C00008601BE0009940F20000C2F2020050F8FE
:1006D000210041F21441C4F202010860009940F285
:1006E0008000C2F2020050F82100019910398840C0
:1006F00040F61401C4F202010860FFE7FFE7019829
:10070000082820DBFFE701980F281CDCFFE7009991
:1007100040F24000C2F2020050F8210041F61401FC
:10072000C4F202010860009940F28000C2F20200A7
:1007300050F8210001990839084140F61441C4F2EB
:100740000201086024E00198102820DBFFE70198EF
:1007500017281CDCFFE7009940F20000C2F20200FB
:1007600050F8210041F61401C4F20201086000991A
:1007700040F28000C2F2020050F8210001991039C5
:10078000884040F61441C4F202010860FFE7FFE729
:10079000019810281FDBFFE7019817281BDCFFE7F3
:1007A000009940F20000C2F2020050F8210014212A
:1007B000C4F202010860009940F28000C2F2020017
:1007C00050F8210001991039084141F21401C4F296
:1007D00002010860FFE70520FFF7DEFDFFE7009854
:1007E000013000902CE7FFE70198013001901EE7EF
:1007F00018E7F1EE100A4FF6FF71C0F2C03120EA9F
:10080000010040F04070E1EE100A70472C0800082B
:1008100000000220A00000005C020008CC080008D4
:10082000A0000220600600007C020008FF0000001B
:10083000000000007E0000007E0000007E0000003E
:100840007E00000000000000FF000000FF0100002B
:10085000FF010000F0010000F6010000F6010000B9
:10086000F601000000000000FF010000FF00000092
:10087000FF00000070000000B6010000C60100008B
:10088000E601000000000000FF010000000200007F
:10089000000100008000000040000000080000008F
:1008A00004000000020000000100000080000000C1
:1008B00040000000200000001000000008000000C0
:0C08C00004000000020000000100000025
:04000005080002C528
:00000001FF
