:020000040800F2
:1000000060060220A9020008B1020008B30200083D
:10001000B5020008B7020008B9020008000000009D
:10002000000000000000000000000000BB0200080B
:10003000BD02000800000000BF020008C102000865
:10004000C3020008C3020008C3020008C30200087C
:10005000C3020008C3020008C3020008C30200086C
:10006000C3020008C3020008C3020008C30200085C
:10007000C3020008C3020008C3020008C30200084C
:10008000C3020008C3020008C3020008C30200083C
:10009000C3020008C3020008C3020008C30200082C
:1000A000C3020008C3020008C3020008C30200081C
:1000B000C3020008C3020008C3020008C30200080C
:1000C000C3020008C3020008C3020008C3020008FC
:1000D000C3020008C3020008C3020008C3020008EC
:1000E000C3020008C3020008C3020008C3020008DC
:1000F000C3020008C3020008C3020008C3020008CC
:10010000C3020008C3020008C3020008C3020008BB
:10011000C3020008C3020008C3020008C3020008AB
:10012000C3020008C3020008C3020008C30200089B
:10013000C3020008C3020008C3020008C30200088B
:10014000C3020008C3020008C3020008C30200087B
:10015000C3020008C3020008C3020008C30200086B
:10016000C3020008C3020008C3020008C30200085B
:10017000C3020008C3020008C30200080000000018
:10018000C3020008C3020008C3020008C30200083B
:10019000C3020008C3020008C3020008C30200082B
:1001A000C3020008C3020008C3020008C30200081B
:1001B000C3020008C3020008C3020008C30200080B
:1001C000C3020008C302000800000000C3020008C8
:1001D000C3020008C3020008C3020008C3020008EB
:1001E000C3020008C3020008C3020008C3020008DB
:1001F000C3020008C302000800F002F800F044F84F
:1002000014A696E8000CB244B344DA4501D100F0DC
:100210003BF8BAE80F000FA696E83000A5EB0405FE
:1002200004EB0607AAEB0704A7F101074FEA15152F
:100230004FEA3414A4F10104AC4201D300F024F8D5
:1002400013F0010F18BFFB1A43F0010300F001F88F
:10025000DBE7184748030000580300007047000020
:100260000023002400250026103A28BF78C1FBD8BF
:10027000520728BF30C148BF0B6070471FB500F060
:100280007FF91FBD10B510BD00F031F81146FFF722
:10029000F5FF00F05DF900F04FF803B4FFF7F2FF4F
:1002A00003BC00F057F800000948804709480047A0
:1002B000FEE7FEE7FEE7FEE7FEE7FEE7FEE7FEE716
:1002C000FEE7FEE704480549054A064B7047000073
:1002D00069030008F901000860000220600602209E
:1002E0006002022060020220704770477047754626
:1002F00000F02CF8AE4605006946534620F0070092
:10030000854618B020B5FFF7DDFFBDE820404FF06F
:1003100000064FF000074FF000084FF0000BAC460E
:10032000ACE8C009ACE8C009ACE8C009ACE8C00959
:1003300021F007018D46704710B50446AFF30080E9
:100340002046BDE81040FFF7A8BF000000487047F6
:100350000000022001491820ABBEFEE72600020083
:1003600070470000000000004EF68851CEF20001F8
:10037000086840F47000086070470000000000004A
:1003800080B582B0019000200090FFE700980199AD
:10039000884209D2FFE74FF47A5000F009F8FFE7EE
:1003A000009801300090F1E702B080BD000000002D
:1003B00081B00090009801384EF21401CEF2000195
:1003C00008604EF21801CEF2000100200860FFE73D
:1003D0004EF21000CEF200000068C003002801D4E5
:1003E000FFE7F5E701B0704743F63001C4F20201C0
:1003F000086840F01000086041F20001C4F20201F8
:1004000008680022C2F688021043086041F2240105
:10041000C4F20201086841F21002C0F21012104347
:10042000086043F64401C4F20201086840F001008C
:1004300008602821C4F201019F2008602C21C4F229
:10044000010140F2E73008601821C4F20101086898
:1004500046F26002104308601C21C4F201010868E2
:10046000104308602021C4F20101086841F2111212
:10047000104308600021C4F20101086840F0010047
:1004800008604421C4F20101086840F4004008609B
:10049000704700000000000082B08DF807008DF862
:1004A00006108DF805209DF8050040F2E73148431D
:1004B00045F62941C0F28F21A0FB0110ADF80200E2
:1004C0009DF8070001281DD1FFE79DF8060060B1E7
:1004D000FFE7BDF802003421C4F2010108603821B1
:1004E000C4F20101002008600BE03421C4F20101D4
:1004F00000200860BDF802003821C4F20101086044
:10050000FFE722E09DF8070002281DD1FFE79DF8D4
:10051000060060B1FFE7BDF802003C21C4F2010112
:1005200008604021C4F20101002008600BE03C217A
:10053000C4F2010100200860BDF802004021C4F2AD
:1005400001010860FFE7FFE7FFE702B07047000026
:1005500080B584B000200390FFF746FFFFE701203D
:100560000021019132220292FFF796FF0199029A2F
:100570000220FFF791FF4FF47A70FFF701FFEEE7DB
:10058000F1EE100A4FF6FF71C0F2C03120EA01000F
:1005900040F04070E1EE100A70470000AC05000822
:0C05A0000000022060060000600200085D
:04000005080002A944
:00000001FF
