:020000040800F2
:1000000068060220A9020008B1020008B302000835
:10001000B5020008B7020008B9020008000000009D
:10002000000000000000000000000000BB0200080B
:10003000BD02000800000000BF020008C102000865
:10004000C3020008C3020008C3020008C30200087C
:10005000C3020008C3020008C3020008C30200086C
:10006000C3020008C3020008C3020008C30200085C
:10007000C3020008C3020008C3020008C30200084C
:10008000C3020008C3020008C3020008C30200083C
:10009000C3020008C3020008C3020008C30200082C
:1000A000C3020008C3020008C3020008C30200081C
:1000B000C3020008C3020008C3020008C30200080C
:1000C000C3020008C3020008C3020008C3020008FC
:1000D000C3020008C3020008C3020008810300082D
:1000E000C3020008C3020008C3020008C3020008DC
:1000F000C3020008C3020008C3020008C3020008CC
:10010000C3020008C3020008C3020008C3020008BB
:10011000C3020008C3020008C3020008C3020008AB
:10012000C3020008C3020008C3020008C30200089B
:10013000C3020008C3020008C3020008C30200088B
:10014000C3020008C3020008C3020008C30200087B
:10015000C3020008C3020008C3020008C30200086B
:10016000C3020008C3020008C3020008C30200085B
:10017000C3020008C3020008C30200080000000018
:10018000C3020008C3020008C3020008C30200083B
:10019000C3020008C3020008C3020008C30200082B
:1001A000C3020008C3020008C3020008C30200081B
:1001B000C3020008C3020008C3020008C30200080B
:1001C000C3020008C302000800000000C3020008C8
:1001D000C3020008C3020008C3020008C3020008EB
:1001E000C3020008C3020008C3020008C3020008DB
:1001F000C3020008C302000800F002F800F044F84F
:1002000014A696E8000CB244B344DA4501D100F0DC
:100210003BF8BAE80F000FA696E83000A5EB0405FE
:1002200004EB0607AAEB0704A7F101074FEA15152F
:100230004FEA3414A4F10104AC4201D300F024F8D5
:1002400013F0010F18BFFB1A43F0010300F001F88F
:10025000DBE71847B8030000C80300007047000040
:100260000023002400250026103A28BF78C1FBD8BF
:10027000520728BF30C148BF0B6070471FB500F060
:10028000B7F91FBD10B510BD00F031F81146FFF7EA
:10029000F5FF00F0D1F800F04FF803B4FFF7F2FFDC
:1002A00003BC00F057F800000948804709480047A0
:1002B000FEE7FEE7FEE7FEE7FEE7FEE7FEE7FEE716
:1002C000FEE7FEE704480549054A064B7047000073
:1002D00069030008F901000868000220680602208E
:1002E0006802022068020220704770477047754616
:1002F00000F02CF8AE4605006946534620F0070092
:10030000854618B020B5FFF7DDFFBDE820404FF06F
:1003100000064FF000074FF000084FF0000BAC460E
:10032000ACE8C009ACE8C009ACE8C009ACE8C00959
:1003300021F007018D46704710B50446AFF30080E9
:100340002046BDE81040FFF7A8BF000000487047F6
:100350000000022001491820ABBEFEE72600020083
:1003600070470000000000004EF68851CEF20001F8
:10037000086840F47000086070470000000000004A
:1003800044F61C00C4F20000006800F020010120C7
:10039000B0EB511F16D1FFE744F62400C4F2000071
:1003A000016840F26000C2F202000170007861282A
:1003B00007D1FFE740F26101C2F20201012008709B
:1003C000FFE7FFE77047000080B582B00190002092
:1003D0000090FFE700980199884209D2FFE74FF4A7
:1003E0007A5000F009F8FFE7009801300090F1E73B
:1003F00002B080BD0000000081B00090009801387C
:100400004EF21401CEF2000108604EF21801CEF255
:10041000000100200860FFE74EF21000CEF200005D
:10042000006800F480310020B0EB114F01D1FFE7EC
:10043000F2E701B07047000080B584B0002003905F
:1004400043F63001C4F20201086840F0060008607B
:1004500040F20042C4F20202106843F6FC73CFF689
:10046000FF7318401060106844F2010C40EA0C0061
:10047000106040F60002C4F20202106820F04060F2
:10048000106040F20442C4F20202106820F08100C1
:10049000106040F20842C4F2020210684CF2030CF1
:1004A00040EA0C00106040F60802C4F20202106834
:1004B00040F04060106040F20C42C4F2020210684A
:1004C0001840106040F60C02C4F20202106820F0DE
:1004D00040601060106840F0006010604EF214023E
:1004E000CEF200026FF07F4010604EF21002CEF2AA
:1004F0000002106840F005001060086840F001003C
:1005000008600021C4F20201086840F0AA000860F7
:100510002021C4F20201086842F22222104308603E
:1005200043F64001C4F20201086840F00800086088
:1005300040F62841C4F200010420086040F62C4136
:10054000C4F200014FF6FF10086040F60041C4F20B
:100550000001086840F00100086040F61841C4F24C
:100560000001086846F260021043086040F61C4132
:10057000C4F2000108681043086040F62041C4F24C
:100580000001086841F211121043086040F614415E
:10059000C4F20001086840F001000860FFE740F67F
:1005A0003441C4F200014FF4C860019008604FF478
:1005B0007A700290FFF708FF0199029840F63842DE
:1005C000C4F200021160FFF7FFFE0199029840F6A5
:1005D0003C42C4F200021160FFF7F6FE0199029856
:1005E00040F64042C4F200021160FFF7EDFED6E78C
:1005F000F1EE100A4FF6FF71C0F2C03120EA01009F
:1006000040F04070E1EE100A704700001C06000840
:0C061000000002206806000060020008E4
:04000005080002A944
:00000001FF
