:020000040800F2
:1000000068060220A9020008B1020008B302000835
:10001000B5020008B7020008B9020008000000009D
:10002000000000000000000000000000BB0200080B
:10003000BD02000800000000BF020008C102000865
:10004000C3020008C3020008C3020008C30200087C
:10005000C3020008C3020008C3020008C30200086C
:10006000C3020008C3020008C3020008C30200085C
:10007000C3020008C3020008C3020008C30200084C
:10008000C3020008C3020008C3020008C30200083C
:10009000C3020008C3020008C3020008C30200082C
:1000A000C3020008C3020008C3020008C30200081C
:1000B000C3020008C3020008C3020008C30200080C
:1000C000C3020008C3020008C3020008C3020008FC
:1000D000C3020008C3020008C3020008C3020008EC
:1000E000C3020008C3020008C3020008C3020008DC
:1000F000C3020008C3020008C3020008C3020008CC
:10010000C3020008C3020008C3020008C3020008BB
:10011000C3020008C3020008C3020008C3020008AB
:10012000C3020008C3020008C3020008C30200089B
:10013000C3020008C3020008C3020008C30200088B
:10014000C3020008C3020008C3020008C30200087B
:10015000C3020008C3020008C3020008C30200086B
:10016000C3020008C3020008C3020008C30200085B
:10017000C3020008C3020008C30200080000000018
:10018000C3020008C3020008C3020008C30200083B
:10019000C3020008C3020008C3020008C30200082B
:1001A000C3020008C3020008C3020008C30200081B
:1001B000C3020008C3020008C3020008C30200080B
:1001C000C3020008C302000800000000C3020008C8
:1001D000C3020008C3020008C3020008C3020008EB
:1001E000C3020008C3020008C3020008C3020008DB
:1001F000C3020008C302000800F002F800F044F84F
:1002000014A696E8000CB244B344DA4501D100F0DC
:100210003BF8BAE80F000FA696E83000A5EB0405FE
:1002200004EB0607AAEB0704A7F101074FEA15152F
:100230004FEA3414A4F10104AC4201D300F024F8D5
:1002400013F0010F18BFFB1A43F0010300F001F88F
:10025000DBE71847780300008803000070470000C0
:100260000023002400250026103A28BF78C1FBD8BF
:10027000520728BF30C148BF0B6070471FB500F060
:1002800098F91FBD10B510BD00F031F81146FFF709
:10029000F5FF00F071F900F04FF803B4FFF7F2FF3B
:1002A00003BC00F057F800000948804709480047A0
:1002B000FEE7FEE7FEE7FEE7FEE7FEE7FEE7FEE716
:1002C000FEE7FEE704480549054A064B7047000073
:1002D00069030008F901000868000220680602208E
:1002E0006802022068020220704770477047754616
:1002F00000F02CF8AE4605006946534620F0070092
:10030000854618B020B5FFF7DDFFBDE820404FF06F
:1003100000064FF000074FF000084FF0000BAC460E
:10032000ACE8C009ACE8C009ACE8C009ACE8C00959
:1003300021F007018D46704710B50446AFF30080E9
:100340002046BDE81040FFF7A8BF000000487047F6
:100350000000022001491820ABBEFEE72600020083
:1003600070470000000000004EF68851CEF20001F8
:10037000086840F47000086070470000000000004A
:1003800080B582B0019000200090FFE700980199AD
:10039000884209D2FFE74FF47A5000F009F8FFE7EE
:1003A000009801300090F1E702B080BD000000002D
:1003B00081B00090009801384EF21401CEF2000195
:1003C00008604EF21801CEF2000100200860FFE73D
:1003D0004EF21000CEF200000068C003002801D4E5
:1003E000FFE7F5E701B0704743F63001C4F20201C0
:1003F000086840F00800086040F60041C4F20201BD
:10040000086820F0C0000860086840F040000860FC
:1004100040F60841C4F20201086820F0C0000860FC
:10042000086840F08000086042F20811C4F201013F
:10043000086840F080400860FFE742F20010C4F214
:10044000010000688007002801D4FFE7F5E742F2C9
:100450000011C4F20101086820F00200086042F2B5
:100460004C10C4F20100016840F26000C2F20200C8
:100470000180008800EE100AB8EE400AB7EEC00A0C
:100480009FED151B20EE010BB7EEC00B40F2640090
:10049000C2F2020080ED000A90ED000AB7EEC00A39
:1004A0009FED0F1BB4EE410BF1EE10FA09DBFFE7F5
:1004B00040F61441C4F20201086840F008000860E8
:1004C00008E040F61441C4F20201086820F0080078
:1004D0000860FFE7704700BF6D1AD0A6016D6A3F44
:1004E000CDCCCCCCCCCC004043F63001C4F20201E0
:1004F000086840F00400086043F64401C4F20201B9
:10050000086840F40070086040F60001C4F202017F
:10051000086840F0C000086042F20811C4F201010E
:10052000086840F001000860086840F480600860D6
:1005300042F20411C4F20101086820F04070086022
:10054000086840F08070086042F20C11C4F20101AA
:10055000086840F00800086042F23411C4F201015A
:10056000086820F01F000860086840F00D0008606F
:10057000704700000000000080B582B000200190AC
:100580004EF21401CEF200016FF07F4008604EF28F
:100590001001CEF20001086840F005000860FFF786
:1005A000A3FFFFE7FFF720FF4FF4FA70FFF7E8FE25
:1005B000F8E7F1EE100A4FF6FF71C0F2C03120EA01
:1005C000010040F04070E1EE100A7047DC050008C1
:0C05D00000000220680600006002000825
:04000005080002A944
:00000001FF
