:020000040800F2
:1000000078060220C5020008CD020008CF020008D1
:10001000D1020008D3020008D50200080000000049
:10002000000000000000000000000000D7020008EF
:10003000D902000800000000DB020008DD02000811
:10004000DF020008DF020008DF020008DF0200080C
:10005000DF020008DF020008C9030008DF02000811
:10006000DF020008DF020008DF020008DF020008EC
:10007000DF020008DF020008DF020008DF020008DC
:10008000DF020008DF020008DF020008DF020008CC
:10009000DF020008DF020008DF020008DF020008BC
:1000A000DF020008DF020008DF020008DF020008AC
:1000B000DF020008DF020008DF020008DF0200089C
:1000C000DF020008DF020008DF020008DF0200088C
:1000D000DF020008DF020008DF020008DF0200087C
:1000E000DF020008DF020008DF020008DF0200086C
:1000F000DF020008DF020008DF020008DF0200085C
:10010000DF020008DF020008DF020008DF0200084B
:10011000DF020008DF020008DF020008DF0200083B
:10012000DF020008DF020008DF020008DF0200082B
:10013000DF020008DF020008DF020008DF0200081B
:10014000DF020008DF020008DF020008DF0200080B
:10015000DF020008DF020008DF020008DF020008FB
:10016000DF020008DF020008DF020008DF020008EB
:10017000DF020008DF020008DF02000800000000C4
:10018000DF020008DF020008DF020008DF020008CB
:10019000DF020008DF020008DF020008DF020008BB
:1001A000DF020008DF020008DF020008DF020008AB
:1001B000DF020008DF020008DF020008DF0200089B
:1001C000DF020008DF02000800000000DF02000874
:1001D000DF020008DF020008DF020008DF0200087B
:1001E000DF020008DF020008DF020008DF0200086B
:1001F000DF020008DF02000800F002F800F052F809
:1002000014A696E8000CB244B344DA4501D100F0DC
:1002100049F8BAE80F000FA696E83000A5EB0405F0
:1002200004EB0607AAEB0704A7F101074FEA15152F
:100230004FEA3414A4F10104AC4201D300F032F8C7
:1002400013F0010F18BFFB1A43F0010300F001F88F
:10025000DBE71847A0030000C0030000103A24BFEA
:1002600078C878C1FAD8520724BF30C830C144BF1B
:1002700004680C60704700007047000000230024F1
:1002800000250026103A28BF78C1FBD8520728BFA6
:1002900030C148BF0B6070471FB500F095F91FBD16
:1002A00010B510BD00F055F81146FFF7F5FF00F04E
:1002B00083F900F073F803B4FFF7F2FF03BC00F01A
:1002C0007BF800000948804709480047FEE7FEE741
:1002D000FEE7FEE7FEE7FEE7FEE7FEE7FEE7FEE7F6
:1002E00004480549054A064B7047000071040008A0
:1002F000F901000878000220780602207802022026
:100300007802022040EA0103024630B59B0710D173
:100310004FF0013400E008C208C91D1B9D4315EAD7
:10032000C41FF8D013F0FF0102F8011B0DD01B0A07
:10033000F8E711F8013B002B02F8013B05D011F85A
:10034000013B002B02F8013BF3D130BD70477047F1
:100350007047754600F02CF8AE46050069465346D6
:1003600020F00700854618B020B5FFF7B9FFBDE8BB
:1003700020404FF000064FF000074FF000084FF00C
:10038000000BAC46ACE8C009ACE8C009ACE8C00959
:10039000ACE8C00921F007018D46704710B504464E
:1003A000AFF300802046BDE81040FFF784BF000097
:1003B000004870471000022001491820ABBEFEE73C
:1003C000260002007047000080B543F61440C4F2D6
:1003D00001000068C007002849D0FFE743F6144138
:1003E000C4F20101086840F00100086040F61040C6
:1003F000C4F202000068C007C8B9FFE740F2144128
:10040000C4F20201086840F00100086040F20000F8
:10041000C2F2020040F2E251C0F60001FFF772FFA3
:1004200040F27001C2F202010120086018E040F2BF
:100430001441C4F20201086820F00100086040F293
:100440000000C2F2020040F2EA51C0F60001FFF7DC
:1004500059FF40F27001C2F2020100200860FFE77C
:1004600040F27401C2F2020101200870FFE780BD72
:100470004EF68851CEF20001086840F47000086022
:10048000704700000000000080B543F63001C4F260
:100490000201086840F00A00086040F60041C4F21A
:1004A0000201086820F00300086040F60C41C4F225
:1004B0000201086820F00300086040F60841C4F219
:1004C0000201086820F00300086040F60441C4F20D
:1004D0000201086820F00100086040F20041C4F207
:1004E0000201086820F003000860086840F001007D
:1004F000086040F20441C4F20201086820F00100E3
:10050000086040F20841C4F20201086840F00300AC
:10051000086040F20C41C4F20201086820F00300B8
:10052000086043F64401C4F20201086840F48040C8
:10053000086043F60801C4F20101086820F00F00CA
:100540000860086840F00300086043F60041C4F208
:100550000101086840F00100086043F60C41C4F254
:100560000101086840F00100086043F60841C4F248
:100570000101086820F001000860062000F004F87E
:1005800080BD00000000000081B08DF803009DF9DF
:10059000030000280ED4FFE79DF9031001F01F02AD
:1005A000012090404A094EF20011CEF2000141F8BC
:1005B0002200FFE701B0704780B582B000200190B3
:1005C000FFF762FFFFE7FEE7F1EE100A4FF6FF715B
:1005D000C0F2C03120EA010040F04070E1EE100AA4
:1005E0007047494E46523A736900494E46523A6E38
:1005F0006F00000014060008000002200C0000003C
:100600005C020008200600081000022068060000B6
:100610007C020008494E46523A206E6F00000000EE
:04000005080002C528
:00000001FF
