:020000040800F2
:10000000C006022071030008790300087B03000882
:100010007D0300087F030008810300080000000042
:100020000000000000000000000000008303000842
:10003000850300080000000087030008890300080A
:100040008B0300088B0300088B0300088B03000858
:100050008B0300088B030008811600088B0300083F
:100060008B0300088B0300088B0300088B03000838
:100070008B0300088B0300088B0300088B03000828
:100080008B0300088B0300088B0300088B03000818
:100090008B0300088B0300088B0300088B03000808
:1000A0008B0300088B0300088B0300088B030008F8
:1000B0008B030008591700088B0300088B03000806
:1000C0008B0300088B0300088B0300088B030008D8
:1000D0008B0300088B0300088B030008811A0008BB
:1000E0008B0300088B0300088B0300088B030008B8
:1000F0008B0300088B0300088B0300088B030008A8
:100100008B0300088B0300088B0300088B03000897
:10011000311800088B0300088B0300088B030008CC
:100120008B0300088B0300088B0300088B03000877
:100130008B0300088B0300088B0300088B03000867
:100140008B0300088B0300088B0300088B03000857
:100150008B0300088B0300088B0300088B03000847
:100160008B0300088B0300088B0300088B03000837
:100170008B0300088B0300088B03000800000000BD
:100180008B0300088B0300088B0300088B03000817
:100190008B0300088B0300088B0300088B03000807
:1001A0008B0300088B0300088B0300088B030008F7
:1001B0008B0300088B0300088B0300088B030008E7
:1001C0008B0300088B030008000000008B0300086D
:1001D0008B0300088B0300088B0300088B030008C7
:1001E0008B0300088B0300088B0300088B030008B7
:1001F0008B0300088B03000800F002F800F0A8F859
:1002000014A696E8000CB244B344DA4501D100F0DC
:100210009FF8BAE80F000FA696E83000A5EB04059A
:1002200004EB0607AAEB0704A7F101074FEA15152F
:100230004FEA3414A4F10104AC4201D300F088F871
:1002400013F0010F18BFFB1A43F0010300F001F88F
:10025000DBE7184788390000A8390000103A24BFAE
:1002600078C878C1FAD8520724BF30C830C144BF1B
:1002700004680C60704700007047000000230024F1
:1002800000250026103A28BF78C1FBD8520728BFA6
:1002900030C148BF0B6070476E2900F0958170290E
:1002A00000F0D782662903F0EA83652903F0E7832B
:1002B000672903F0E483612903F0E38303681B0AE1
:1002C00028BF41F08001692900F04281642900F0D3
:1002D0003F81752900F03C816F2900F06582782903
:1002E00000F0A382E92900F0FF81E42900F0FC81FD
:1002F000F52900F0F981EF2900F06282F82900F079
:10030000A2820368DB0928BF41F08001632900F065
:10031000E787732900F0EC87E32900F0F787F329DA
:1003200000F0FC87002070471FB503F09BFB01F035
:1003300091F804000020002103F068FB401C60607D
:100340000020002103F078FBE0601FBD10B510BD58
:1003500001F05BF81146FFF7E7FF02F091FC01F0B6
:100360003DF903B4FFF7F2FF03BC01F07FF9000091
:100370000948804709480047FEE7FEE7FEE7FEE739
:10038000FEE7FEE7FEE7FEE7FEE7FEE70448054975
:10039000054A064B7047000041170008F9010008A4
:1003A000C0000220C0060220C0020220C0020220BB
:1003B0000FB41CB5084B06AA7B446946009005980B
:1003C00000F01BF904460020694600F029F9204698
:1003D0001CBC5DF814FB00006502000070B5064609
:1003E00000F050F80468054630460A22002100F06B
:1003F000FFFA2C6070BD40EA0103024630B59B074E
:1004000010D14FF0013400E008C208C91D1B9D4304
:1004100015EAC41FF8D013F0FF0102F8011B0DD03C
:100420001B0AF8E711F8013B002B02F8013B05D04D
:1004300011F8013B002B02F8013BF3D130BD10B5A0
:10044000431C02E010F8011B71B18107FAD14FF093
:10045000013202C88C1A8C4314EAC211F9D0C01AB6
:100460000A0603D0C01E10BDC01A10BD0A0401D078
:10047000801E10BD0902FCD0401E10BD70477047A1
:1004800070470000004870471000022070B5044615
:1004900085690068C10601D5302600E02026C00726
:1004A00007D070BDD4E9012130469047206A401C36
:1004B00020626D1EF6D570BD70B504468569007862
:1004C000C00707D170BDD4E9012120209047206AE0
:1004D000401C20626D1EF6D570BD09684A0501D525
:1004E00040B27047C905FCD500B2704709684A059B
:1004F00001D5C0B27047C905FCD580B2704770B550
:100500000C460546012A05D02878800600D5EA6900
:10051000002302E0012305E05B1C934202D2E05C71
:100520000028F9D1A869E618C01AA861286A1844F9
:1005300028622846FFF7AAFF04E0D5E9012114F854
:10054000010B9047B442F8D32846FFF7B5FF70BDC2
:100550002DE9F0410646002410687529314616A59C
:1005600010D0FFF7BAFF002802DA404213A507E0D7
:1005700031688A0701D512A502E0490704D511A503
:10058000012401E0FFF7B2FF00210A2206F124074F
:1005900009E0B0FBF2FCB0FBF2F302FB1C003030D0
:1005A00078541846491C0028F3D123462A46304681
:1005B000BDE8F04100F0A5BA000000002D000000E9
:1005C0002B0000002000000011680268006A53053B
:1005D00001D508700AE0D30501D5088006E01306AE
:1005E00003D5C217C1E9000200E00860012070478E
:1005F00001694A1C02610878704700B58FB0CDE9E7
:1006000001310021059105497944CDE903101146D6
:10061000684600F029F90FB000BD0000E5FFFFFFBC
:100620000A6802F8010B0A60704700002DE9FF5FBD
:1006300015468A460446DFF8AC80F8440027D8E91E
:1006400000103E46CDE9001010E03AF816106A4658
:1006500002A800F0B6FE411C07D02178890603D518
:10066000E269391891420DD80744761C207880063B
:1006700002D5E069B84205DDAE42E6DB3AF8160085
:100680000028E2D1A069C01BA0612046FFF7FEFE52
:10069000D8E90010CDE90010002017E03AF8181052
:1006A0006A4602A800F08DFEB0F1FF3F81460BD0F4
:1006B00000250DF1080B05E0D4E901211BF8050028
:1006C00090476D1C4D45F7D308F10100B0428046BC
:1006D000E4DB206A384420622046FFF7EDFEBDE8E7
:1006E000FF9F00004A3400002DE9F0418046D21DF2
:1006F00022F007020025D2E90002F52915A614D040
:10070000011E72F1000106DA0023D0EB030063EB57
:10071000020211A608E0D8F800108B0701D50FA639
:1007200002E0490701D50EA601251146002408F173
:10073000240704E000F0A0F930323A55641C50EA76
:100740000102F7D12B46324621464046BDE8F04132
:1007500000F0D7B9000000002D0000002B000000C1
:100760002000000030B4002100F1240408E002F071
:100770000705D208303542EA4372DB086554491C4C
:1007800052EA0305F3D10468002310A2250708D517
:1007900004F020040C4304D0C46901230CA2641E9D
:1007A000C46130BC00F0ADB910B5044621461068F4
:1007B000FFF79CFE02462046BDE810400023D1E72B
:1007C000D21D22F00701D1E90023CBE70000000091
:1007D00030000000F0B40D460188090502D5214C17
:1007E0007C4402E01F4C7C440E34002100F12406BE
:1007F00008E002F00F071209E75D42EA03721B09E5
:100800007754491C52EA0307F3D1027800231207F8
:1008100004D5702D06D009B1022311342246F0BC54
:1008200000F06FB901231034F8E770B504460D46A7
:1008300021461068FFF75AFE024629462046BDE8C9
:1008400070400023C6E7D21D22F00703D3E900233E
:10085000C0E70368126843F0200303600823C36104
:100860000023B7E7AC3200002DE9F05F894604466B
:100870004FF0000ADFF874B1FB44C0F820A0204616
:10088000E1688847002874D0252806D0D4E90121E2
:100890009047206A401C2062F1E700265F46204610
:1008A000E16888472028054607DB312D05D27819F5
:1008B00010F8200C08B10643F1E7B00701D526F087
:1008C0000406C4F81CA00027C4F818A02A2D09D0DB
:1008D000284603F093F838B304EB8708303DC8F896
:1008E000185019E059F8041B204604EB8702916167
:1008F000E1688847012F054618D1E069002820DA11
:1009000026F020061DE0D8F8180000EB800005EB6B
:1009100040003038C8F818002046E168884705468E
:1009200003F06CF80028EED1012F0AD02E2D08D14B
:100930002046E16888477F1C0546022F46F02006C6
:10094000C4DBA069002803DA404246F00106A0613A
:10095000F00701D026F010066C2D0BD0682D09D0C1
:100960004C2D39D06A2D35D0742D35D07A2D33D019
:1009700016E038E0E1682F4620468847B842054631
:1009800009D16C2F26D04FF48060E16806432046E1
:100990008847054604E06C2F1AD04FF48070064358
:1009A0000DB3A5F14100192802D8203546F40066A0
:1009B0004A462946204626604E46FFF76DFC80B128
:1009C00001280BD0F61D26F0070000F1080956E7B4
:1009D0004020E4E78020D8E70020D6E706F10409AC
:1009E0004DE7284652E7206ABDE8F09F3C32000000
:1009F0002DE9F04791460F4680460446002614F83C
:100A0000015B2DB100F030F80068405DC007F6D101
:100A10002B2D02D02D2D18D0641E4A463946204673
:100A200000F080FC27B13968A14201D1C7F80080ED
:100A30004FF0020471050BD54042002803DDFFF79B
:100A400021FD0460A007BDE8F08746F48066E4E776
:100A50000028F8DAFFF716FD04606FF00040F2E7B7
:100A6000004870471000022010B500F0F3FC001D94
:100A700010BD00BF992F000030B5B0F10A0271F12E
:100A800000034FEA900E4EEA817EB0EB0E0061EB60
:100A900091014FEA101E4EEA017E10EB0E0041EB71
:100AA00011114FEA102E4EEA016E10EB0E0041EBD1
:100AB00011214FEA104E4EEA014E10EB0E0041EBB1
:100AC0001141401841F100014FEAD00040EA417065
:100AD0004FEAD1014FEA810444EA907410EB80059B
:100AE00044EB01046D1944EB0404521BA3414FF085
:100AF000000348BF0A3200D530BD401C41F100015F
:100B000030BD2DE9F0470D4699469246044600F166
:100B100024080168880604D5E06921F010012160ED
:100B200000E00120A84201DD471B00E00027A16989
:100B30007A1902EB0900081AA0612078C00602D4D5
:100B40002046FFF7A3FC002608E0D4E901211AF8AB
:100B500006009047206A401C761C20624E45F4DB5C
:100B60002078C0060AD52046FFF790FC06E0D4E9BD
:100B7000012130209047206A401C2062381EA7F1D6
:100B80000107F4DC07E0D4E9012118F805009047DB
:100B9000206A401C2062281EA5F10105F3DC2046D6
:100BA000FFF78AFC2078000602D50220BDE8F08716
:100BB0000120FBE72DE9FF4F0C461E464FF0FF37A3
:100BC0008BB0D2E90001DDF860800A908A46C1F35B
:100BD0000A5505B93D46002108464FF00000BAF11C
:100BE000000F00F4400005DA00EB80004FF44001F4
:100BF00001EA50004FEA9059B9F1010F00DDB94602
:100C00000A9850EA4A000ED044F61050A5F2FF357B
:100C100045432F14B8F1000F1ED07542291E1EDD6A
:100C2000C9F100021CE0B8F1010F4FF0000001D043
:100C3000302103E0F24305E02154401CB042FBDBCD
:100C400030460022002121540B99C1F80880C1E9E7
:100C500000200FB0BDE8F08FBD1B6D1CDEE74A46DB
:100C600000DA694206A800F047FC06AB93E80700EB
:100C700003AB83E8070050460A9902F0DFFA8DE8DB
:100C80000700A0F500501F3800900398002D0ADDE2
:100C900042F21F014A460844002303A90390684614
:100CA00002F048FD09E0A0F500504A461F38002335
:100CB00003A90390684602F052FD8DE80700000486
:100CC000000C03D04FF0FF30410800E01046B8F1AF
:100CD000000F03D00022009215461EE0751E05D4B9
:100CE000FFF7CAFE303262556D1EF9D5B3460122B8
:100CF000084302D000227F1C04E02078302801D174
:100D000000227F1E002A099784D01DE0112D07DAEA
:100D1000FFF7B2FE303262556D1C50EA0102F5D188
:100D2000084302D00098C8B10EE00021681E05E01B
:100D3000235C625C63542254401E491C8142F7DBF1
:100D4000AB46A81B401E0990002004F80B000B982E
:100D5000099AC0F80880C0E9002B7AE711264FF005
:100D6000000857E72DE9F04F88460446D21D22F0CF
:100D7000070191B0D1E90001CDE90A0102F026FE98
:100D800002460B98C00F01D02D2007E02068810794
:100D900001D52B2002E0202101EAC000032A09909E
:100DA00001D0072A05DB03464146204600F056FBEA
:100DB0000BE12078800601D5E06900E00620B8F15B
:100DC000650F814606D0B8F1660F18D0B8F1670FED
:100DD00070D131E00020B9F1110F009001DB112337
:100DE00001E009F101030AAA01A90CA8FFF7E2FE3C
:100DF000DDE90C70002609F10105834647E001207A
:100E00004B4600904FF000470AAA01A90CA8FFF733
:100E1000D1FEDDE90DB00C995D46002610B909F14F
:100E200001000D18B9EB050003D4C0F1FF3609F13C
:100E30000105A5EB09002BE0B9F1010F01DA4FF034
:100E400001090020B9F1110F0090484601DD11237E
:100E500000E003460AAA01A90CA8FFF7ABFEDDE9F2
:100E60000C704D4600268346207800070AD4AB4517
:100E700000DA5D4601A8012D04DD411911F8011CBD
:100E8000302907D04F4502DA17F1040F04DA0120A8
:100E900082460FE06D1EEEE7002F02DCED1B3E44A4
:100EA00003E0781CA84200DD7D1CB81B00F1010A9C
:100EB0004FF000472078000703D4AA4501DB4FF02C
:100EC000FF3A0021B7F1004F0DF143088DF84310B0
:100ED00024D002202B23002F01DA7F422D230A2168
:100EE000021EA0F1010000DC5FB197FBF1FC97FB53
:100EF000F1F201FB1C7C17460CF1300C08F801CD17
:100F0000EEE7A8F1010003702188090501D545210C
:100F100000E06521A0F1010800F8011C09980FA963
:100F2000A1EB0807FF1D00B10120411901EBEA7098
:100F3000A1693844081A401EA0612078C00602D476
:100F40002046FFF7A3FA099828B1D4E90121904778
:100F5000206A401C20622078C00622D52046FFF778
:100F600095FA1EE0002E04DBB34502DD01A8805D8A
:100F700000E03020D4E901219047206A401C206223
:100F8000761CAAF101005FEA000A0AD100F062FAB9
:100F9000C0680168405CD4E901219047206A401C88
:100FA0002062281EA5F10105DCDC07E0D4E901215F
:100FB00018F8010B9047206A401C2062381EA7F1E8
:100FC0000107F3DC2046FFF777FA032011B041E672
:100FD0002DE9F04F04460D46D21D22F0070089B0DE
:100FE000D0E900974846394602F0F0FC0246F80F77
:100FF00001D02D2307E02068810701D52B2302E0D3
:10100000202101EAC0038DF820300BB1012000E05F
:101010000020032A824601D0072A04DB2946204605
:1010200000F01CFA3FE12078800601D40D2500E095
:10103000E569C7F30A560D2D49DA00214FEA175B1F
:1010400008464FF00000002F00F4400007DA00EBE4
:1010500080004FF4400100EBD07001EA6000811580
:10106000012901DD4FF0FF3100224FEA850CBCF170
:10107000180F06D31346ACF118004FF08052C2404F
:1010800003E04FF4801323FA0CF30CF10C0CBCF1C9
:10109000200F04D3ACF1200C09FA0CF001E007FAA0
:1010A0000CF000294FF0004801DD18B90FE00ED117
:1010B00040450CD319EB02095F4121B9404502D1EB
:1010C0009F4329EA0209BBEB175F00D0761C2088FA
:1010D000000502D57B48784402E07A487844193804
:1010E00008AA302302F80A30037C0AF10101002E1D
:1010F0000AF1020A53546A4602DC4FF0300101E063
:101100004FF031014FF001088DF8001002D0A6F227
:10111000FF3603E059EA470100D06B4E002D02DC98
:101120002178090704D54FF002082E218DF801100F
:10113000C44600210BE0C7F303433F01C35C491CD5
:101140006D1E02F80830052908F1010801DA002DAA
:10115000F1DC00210CE000EB1973491C1B786D1EBB
:10116000082902F808304FEA091908F1010801DAE4
:10117000002DF0DC21688B0602D516E0A8F10108ED
:10118000E04505DD02EB080313F8013C302BF5D0F8
:10119000B8F1000F09DD02EB080313F8013C2E2B18
:1011A00003D1090701D4A8F10108002D05DD3E2176
:1011B00002F808106D1E08F10108407C002E02F8AC
:1011C000080008F1010804DA2D20764202F8080030
:1011D00002E02B2002F808000A214FF47A708642C0
:1011E00008F101080BDB96FBF0F3303302F808300E
:1011F00096FBF0F308F1010800FB136601E0642E92
:101200000CDB642096FBF0F3303302F8083096FBD9
:10121000F0F308F1010800FB136601E00A2E06DB7B
:1012200096FBF1F0303002F8080008F1010896FB57
:10123000F1F001FB1060303002F80800A16908F1FC
:10124000010808EB050202EB0A00081AA0612078E9
:10125000C00602D42046FFF719F9216A08AE01EB57
:101260000A00206204E0D4E9012116F8010B90473E
:10127000BAF1010AF7D22078C00602D52046FFF75E
:1012800005F96E4609E016F8010B3E280FD0D4E9A7
:1012900001219047206A401C2062B8F10108F2D277
:1012A0002046FFF709F909B00320BDE8F08F206A56
:1012B0002844206203E0D4E90121302090476D1ECC
:1012C000EBD3F8E7022A000002FCFFFF10B54369E8
:1012D00013B1AFF3008001E0FFF711F9012010BD59
:1012E000127800F124010A7000224A700122EDE711
:1012F00011684FF0FF32E9E710B5436913B1AFF35E
:10130000008001E0FFF792F9012010BD128800F182
:10131000240182840022C2840122EDE711684FF08B
:10132000FF32E9E72DE9F05F824615468B4600273C
:101330000AF10104B9460078302801D09DB113E0CC
:1013400014F8010B0127782803D0582801D045B1A3
:101350000AE00DB1102D07D1002714F8010B10255C
:1013600002E0082500E00A250026B0460EE005FB55
:10137000080005FB06F101271FFA80F801EB104673
:10138000B6F5803F00D3B94614F8010B294600F0AA
:10139000A5F80028EBDABBF1000F05D00FB1641EF1
:1013A00000E05446CBF80040B9F1000F06D0FFF73B
:1013B00069F802210160C81EBDE8F09F48EA0640B6
:1013C000FAE72DE9F04116460C460546FFF74CFBBF
:1013D000036893F80101012807D0FF2C12D8185D8B
:1013E00080B101202C70BDE8F081D3F807013246AE
:1013F000214603F20713C7182846BC46BDE8F04152
:10140000002360474FF0FF30EDE77546FFF728FBFC
:10141000AE4605006946534620F00700854618B0E1
:1014200020B5FEF7B3FFBDE820404FF000064FF0B7
:1014300000074FF000084FF0000BAC46ACE8C009C5
:10144000ACE8C009ACE8C009ACE8C00921F007016C
:101450008D46704700487047300002202DE9F0416A
:101460001F46044603260168072A01F4006004DBD6
:1014700008B116A505E016A503E008B115A500E022
:1014800015A521F010002060A069C01EA0610FB159
:10149000401EA0612046FEF7F9FF4FB1D4E90121BB
:1014A00038469047206A401C2062C01C206206E03B
:1014B000206AFAE7D4E9012115F8010B9047761E5E
:1014C000F8D22046FEF7F8FFBDE8F0814E414E000D
:1014D0006E616E00494E4600696E66003A2800D281
:1014E000303820F02002412A01D3A2F1370088428F
:1014F00001D34FF0FF3070472DE9F0478146164683
:101500008AB0354878440DC88DE80D0032487844DB
:10151000801C03AC0DC884E80D0041F69B300844E4
:10152000372190FBF1F290FBF1F5A5F1800501FB6D
:1015300012041B3C02D56442012000E00020DFF8C9
:1015400098A080460027FA44AAF1BE0A0EE0E00700
:101550000AD03246684607EB470101230AEB8101B6
:1015600002F0FDF88DE8070064107F1C002CEED11E
:10157000194F7F44AE3F19E0E80715D007EB041080
:101580000DF1180A90E80E008AE80E00C068F042DB
:1015900001D1981908903246012306A903A802F048
:1015A000DEF803AB83E807006D10641C002DE3D167
:1015B0004FF0010332466946B8F1000F03A802D08C
:1015C00002F0B8F801E002F0CAF8C9E90001C9F870
:1015D00008200AB0BDE8F0876426000010B5044674
:1015E000AFF300802046BDE81040FEF7BABE000011
:1015F00030B44FF0013C50F8042BCCFA52F451F8BF
:10160000043BD51A20D1FCB950F8042BCCFA52F483
:1016100051F8043BD51A17D1B4B950F8042BCCFAC1
:1016200052F451F8043BD51A0ED16CB950F8042B82
:10163000CCFA52F451F8043BD51A05D1002CDAD07B
:1016400030BC4FF00000704729BAB1FA81F111F0B7
:101650001801D1F120008440F2D1CA40CB4012F0F1
:10166000FF0213F0FF0330BCD01A70470149182065
:10167000ABBEFEE72600020070470000000000003D
:1016800080B543F61440C4F201000068C00700288A
:1016900055D0FFE743F61441C4F20101086840F059
:1016A0000100086040F61040C4F202000068C00764
:1016B00028BBFFE740F21441C4F20201086840F081
:1016C0000100086040F29001C2F2020105200860AA
:1016D00040F20000C2F2020043F6BA31C0F6000147
:1016E000FEF789FE40F28001C2F20201012008608B
:1016F00043F6CF30C0F6000001F02AF918E040F2BE
:101700001441C4F20201086820F00100086040F2B0
:101710000000C2F2020043F6C731C0F60001FEF736
:101720006AFE40F28001C2F2020100200860FFE779
:1017300040F29501C2F2020101200870FFE780BD6E
:101740004EF68851CEF20001086840F4700008603F
:10175000704700000000000040F21040C4F200009A
:101760000068C007002862D0FFE740F21041C4F2D1
:101770000001086820F00100086040F28B00C2F20E
:1017800002000078002851D0FFE740F28A00C2F240
:10179000020001780131017000780A2845D1FFE785
:1017A00040F28A01C2F202010020087040F2A0005B
:1017B000C2F2020001680131016000683C282DD1AD
:1017C000FFE740F2A001C2F202010020086040F2EF
:1017D0009800C2F2020001680131016000680A2825
:1017E0001BD1FFE740F2BC01C2F2020101200860F8
:1017F00040F29001C2F202010520086040F600416B
:10180000C4F20001086820F00100086040F2840181
:10181000C2F2020102200860FFE7FFE740F29401F4
:10182000C2F2020101200870FFE7FFE7FFE77047FF
:1018300080B582B044F61C40C4F200000068800607
:10184000002840F11981FFE744F62440C4F200006B
:1018500000688DF807009DF807000A280FD0FFE701
:101860009DF8070040F27003C2F202031A78511C7F
:10187000197040F27101C2F202018854FBE040F29B
:101880007002C2F20202137840F27100C2F202004A
:101890000021C1541170017830398DF806100130E3
:1018A000FEF79CFD8DF8050040F28400C2F20200B4
:1018B000006848B9FFE740F60041C4F2000108683B
:1018C00020F0010008600BE040F28400C2F2020048
:1018D0000068012803D1FFE700F0C6FBFFE7FFE740
:1018E0009DF80600013801460091112800F2C180E0
:1018F0000099DFE801F0091119212930373E454CE4
:1019000053606D7A8895A2B09DF8050040F2A80159
:10191000C2F202010870ADE09DF8050040F2A90195
:10192000C2F202010870A5E09DF8050040F2AA018C
:10193000C2F2020108709DE09DF8050040F28801A6
:10194000C2F20201087095E040F29001C2F2020179
:10195000012008608EE040F29001C2F202010220F4
:10196000086087E040F29001C2F2020103200860A3
:1019700080E040F29001C2F202010420086079E0A8
:1019800040F28B01C2F202010120087072E040F2C5
:101990009001C2F20201052008606BE040F2900164
:1019A000C2F202010620086040F2A401C2F2020164
:1019B000022008605EE040F29001C2F202010720BE
:1019C000086040F2A401C2F202010220086051E066
:1019D00040F29001C2F202010820086040F2A40126
:1019E000C2F202010220086044E040F29001C2F21B
:1019F0000201092008609DF8050040F2A401C2F22E
:101A00000201086036E040F29001C2F202010A20B1
:101A1000086040F2A401C2F202010120086029E03E
:101A200040F29001C2F202010B20086040F2A401D2
:101A3000C2F20201012008601CE040F29001C2F2F3
:101A400002010C2008609DF8050040F2A401C2F2DA
:101A5000020108600EE040F29001C2F202010D2086
:101A600008609DF8050040F2A401C2F2020108607E
:101A700000E0FFE7FFE7FFE702B080BD00000000E5
:101A800082B044F61C00C4F2000000688006002802
:101A900040F10981FFE744F62400C4F20000006829
:101AA0008DF8070040F28900C2F202000078012898
:101AB0000FD8FFE79DF8070040F28903C2F2020346
:101AC0001A78511C197040F29C01C2F2020188542C
:101AD000FFE740F28900C2F2020000780228C0F25B
:101AE000E180FFE740F29C00C2F2020001788DF82D
:101AF000061040788DF805009DF806000138014673
:101B00000091112800F2C6800099DFE801F0091168
:101B100019212930373E454C53616F7D8B99A7B50C
:101B20009DF8050040F2A801C2F202010870B2E07F
:101B30009DF8050040F2A901C2F202010870AAE076
:101B40009DF8050040F2AA01C2F202010870A2E06D
:101B50009DF8050040F28801C2F2020108709AE087
:101B600040F29001C2F202010120086093E040F2CD
:101B70009001C2F20201022008608CE040F2900164
:101B8000C2F202010320086085E040F29001C2F237
:101B90000201042008607EE040F28B01C2F20201E3
:101BA0000120087077E040F29001C2F202010520A6
:101BB000086070E040F29001C2F202010620086065
:101BC0009DF8050040F2A401C2F20201086062E043
:101BD00040F29001C2F20201072008609DF8050062
:101BE00040F2A401C2F20201086054E040F2900108
:101BF000C2F20201082008609DF8050040F2A4012D
:101C0000C2F20201086046E040F29001C2F2020115
:101C1000092008609DF8050040F2A401C2F202010B
:101C2000086038E040F29001C2F202010A20086028
:101C30009DF8050040F2A401C2F2020108602AE00A
:101C400040F29001C2F202010B2008609DF80500ED
:101C500040F2A401C2F2020108601CE040F29001CF
:101C6000C2F202010C2008609DF8050040F2A401B8
:101C7000C2F2020108600EE040F29001C2F20201DD
:101C80000D2008609DF8050040F2A401C2F2020197
:101C9000086000E0FFE740F28901C2F20201002083
:101CA0000870FFE7FFE702B0704700000000000087
:101CB00080B582B0019000200090FFE70098019964
:101CC000884209D2FFE74FF47A5000F055F8FFE759
:101CD000009801300090F1E702B080BD00000000E4
:101CE00080B582B08DF8070040F61401C4F20201FD
:101CF000086820F4007008609DF80700000900F0F3
:101D00007BFE9DF8070000F00F0000F075FE02B0AA
:101D100080BD00000000000080B582B001909DF8F9
:101D200004000121232200F0C3FE02B080BD0000A8
:101D300080B582B001909DF804000121372200F0A7
:101D4000B7FE02B080BD000080B582B001909DF862
:101D5000040001214B2200F0ABFE02B080BD000068
:101D600080B582B001909DF8040001215A2200F054
:101D70009FFE02B080BD000081B000900098013845
:101D80004EF21401CEF2000108604EF21801CEF2BC
:101D9000000100200860FFE74EF21000CEF20000C4
:101DA000006800F480310020B0EB114F01D1FFE753
:101DB000F2E701B07047000040F2A800C2F2020052
:101DC0000078B42816DCFFE740F2A800C2F2020057
:101DD00000784FF4C851484341F2C261C0F26C111F
:101DE000A0FB011000F5C86040F63441C4F20001C8
:101DF0000860FFE740F2A900C2F202000078B428B0
:101E000016DCFFE740F2A900C2F2020000784FF4AE
:101E1000C851484341F2C261C0F26C11A0FB0110ED
:101E200000F5C86040F63841C4F200010860FFE7E1
:101E300040F2AA00C2F202000078B42816DCFFE7E4
:101E400040F2AA00C2F2020000784FF4C8514843A1
:101E500041F2C261C0F26C11A0FB011000F5C86034
:101E600040F63C41C4F200010860FFE740F2880000
:101E7000C2F202000078B42816DCFFE740F28800C6
:101E8000C2F2020000784FF4C851484341F2C261E7
:101E9000C0F26C11A0FB011000F5C86040F6404193
:101EA000C4F200010860FFE7704700000000000076
:101EB00080B582B0022000216422019200F0F8FD7A
:101EC000019A0121084600F0F3FD02B080BD000038
:101ED00080B582B08DF807008DF8061000208DF8CF
:101EE00005009DF80700012806D1FFE79DF80600D0
:101EF0007F308DF805000BE09DF80700022806D121
:101F0000FFE79DF80600BF308DF80500FFE7FFE70B
:101F10009DF80500FFF7E4FE02B080BD0000000060
:101F200082B043F63001C4F20201086840F00200BA
:101F3000086040F20041C4F20201086820F4404009
:101F40000860086840F48040086040F20841C4F22C
:101F50000201086820F440400860086840F400402E
:101F6000086042F23411C4F20101086820F01F0039
:101F70000860086840F00A00086042F20811C4F2E4
:101F80000101086840F080400860FFE742F200105D
:101F9000C4F2010000688007002801D4FFE7F5E7DC
:101FA00042F20011C4F20101086820F0020008604A
:101FB00042F24C10C4F20100006801909DED010A4C
:101FC000B8EEC00AB7EEC00A9FED1D1B20EE010B54
:101FD000B7EEC00B8DED000A9DED000AB7EEC00A0A
:101FE000B0EE001BB4EE410BF1EE10FA15DBFFE78B
:101FF00040F21441C4F20201086840F08000086019
:1020000040F27C01C2F202010120086040F290011E
:10201000C2F20201052008600EE040F21441C4F251
:102020000201086820F08000086040F27C01C2F2E2
:10203000020100200860FFE702B0704700BF00BF48
:102040006D1AD0A6016D6A3F80B582B00120009064
:1020500000216422019200F02BFD0099019A0220D8
:1020600000F026FD02B080BD43F63001C4F202014B
:10207000086840F0010008600021C4F2020108680D
:1020800040F0AA0008602021C4F20201086842F270
:1020900022221043086043F64001C4F2020108689E
:1020A00040F00800086040F62841C4F20001042016
:1020B000086040F62C41C4F200014FF6FF100860A2
:1020C00040F60041C4F20001086840F001000860D9
:1020D00040F61841C4F20001086846F2600210435D
:1020E000086040F61C41C4F2000108681043086013
:1020F00040F62041C4F20001086841F21112104379
:10210000086040F61441C4F20001086840F0010084
:10211000086070470000000085B043F63001C4F24B
:102120000201086840F00800086040F60042C4F26E
:1021300002020192106820F00C001060106840F05C
:102140000400106040F60841C4F2020102910868E0
:1021500020F00C000860086840F008000860106873
:1021600020F0C0001060106840F040001060086867
:1021700020F0C0000860086840F08000086042F26B
:102180003411C4F20101086820F01F0008600868DB
:1021900040F00D00086042F20811C4F20101086825
:1021A00040F080400860FFE742F20010C4F20100F6
:1021B00000688007002801D4FFE7F5E742F200112C
:1021C000C4F20101086820F00200086042F24C10DD
:1021D000C4F20100006804909DED040AB8EEC00A44
:1021E000B7EEC00A9FED2C1B20EE010BB7EEC00B23
:1021F0008DED030A9DED030AB7EEC00AB0EE041B95
:10220000B4EE410BF1EE10FA35DBFFE740F28C0043
:10221000C2F202000068009020B1FFE70098012898
:102220001BD027E040F61441C4F20201086840F0D8
:1022300008000860086820F00200086040F28C0185
:10224000C2F202010120086040F28401C2F20201E0
:1022500008680130086008600CE040F29001C2F2AA
:1022600002010520086040F28C01C2F20201002048
:102270000860FFE70CE040F61441C4F20201086870
:1022800020F008000860086840F002000860FFE7DE
:1022900005B0704700BF00BF6D1AD0A6016D6A3F40
:1022A00080B543F63001C4F20201086840F00A002C
:1022B000086040F60041C4F20201086820F0030003
:1022C000086040F60C41C4F20201086820F00300E7
:1022D000086040F60841C4F20201086820F00300DB
:1022E000086040F60441C4F20201086820F00100D1
:1022F000086040F20041C4F20201086820F00300C7
:102300000860086840F00100086040F20441C4F22F
:102310000201086820F00100086040F20841C4F2A0
:102320000201086840F00300086040F20C41C4F26A
:102330000201086820F00300086043F64401C4F27B
:102340000201086840F48040086043F60801C4F2C6
:102350000101086820F00F000860086840F00300E1
:10236000086043F60041C4F20101086840F0010032
:10237000086043F60C41C4F20101086840F0010016
:10238000086043F60841C4F20101086840F001000A
:102390000860062000F05CFC80BD0000000000002A
:1023A00080B582B001908020FFF79AFC0020009059
:1023B000FFE701980099405C50B1FFE70198009950
:1023C000405C00F029FCFFE7009801300090F0E746
:1023D00002B080BD0000000080B582B001900120F5
:1023E0000521FFF775FD00200090FFE70198009997
:1023F000405C50B1FFE701980099405C00F00CFC94
:10240000FFE7009801300090F0E702B080BD0000C7
:1024100080B582B0019001200921FFF759FD00200D
:102420000090FFE701980099405C50B1FFE70198E8
:102430000099405C00F0F0FBFFE70098013000904D
:10244000F0E702B080BD000080B582B001900120AD
:102450000D21FFF73DFD00200090FFE70198009956
:10246000405C50B1FFE701980099405C00F0D4FB5C
:10247000FFE7009801300090F0E702B080BD000057
:1024800040F60001C4F20201086840F00300086051
:1024900043F64401C4F20201086840F40070086089
:1024A00042F20811C4F20101086840F201421043EF
:1024B000086042F20411C4F20101086820F0407083
:1024C0000860086840F08070086042F20C11C4F2A5
:1024D0000101086840F00100086042F23411C4F2C2
:1024E0000101086820F01F000860086840F00A0039
:1024F000086070470000000043F63001C4F202019A
:10250000086840F01000086041F20001C4F20201C6
:1025100008680022C2F688021043086041F22401D4
:10252000C4F20201086841F21002C0F21012104316
:10253000086043F64401C4F20201086840F001005B
:1025400008602821C4F201019F2008602C21C4F2F8
:10255000010140F2E73008601821C4F20101086867
:1025600046F26002104308601C21C4F201010868B1
:10257000104308602021C4F20101086841F21112E1
:10258000104308600021C4F20101086840F0010016
:1025900008604421C4F20101086840F4004008606A
:1025A000704700000000000080B586B08DF817006D
:1025B0009DF8172043F6B131C0F600010DF1070078
:1025C0000090FDF7F5FE0098FFF7EAFE06B080BD2B
:1025D00080B586B08DF817009DF8172043F6B1310D
:1025E000C0F600010DF107000090FDF7E1FE009834
:1025F000FFF7F2FE06B080BD80B586B08DF81700FB
:102600009DF8172043F6B131C0F600010DF1070027
:102610000090FDF7CDFE0098FFF7FAFE06B080BDF2
:1026200080B586B08DF817009DF8172043F6B131BC
:10263000C0F600010DF107000090FDF7B9FE00980B
:10264000FFF702FF06B080BD43F63001C4F202017D
:10265000086840F00400086043F64401C4F2020137
:10266000086840F40070086040F60001C4F20201FE
:10267000086840F0C000086042F20811C4F201018D
:10268000086840F001000860086840F48060086055
:1026900042F20411C4F20101086820F040700860A1
:1026A000086840F08070086042F20C11C4F2010129
:1026B000086840F00800086042F23411C4F20101D9
:1026C000086820F01F000860086840F00D000860EE
:1026D000704700000000000080B543F64001C4F2DE
:1026E0000201086840F00200086040F22841C4F28C
:1026F000000143F67F60086040F22C41C4F2000103
:102700006320086040F20C41C4F20001086840F008
:102710000100086040F20041C4F20001086840F086
:10272000010008601D2000F093FA80BD0000000049
:1027300080B543F63001C4F20201086840F004009D
:10274000086043F64001C4F20201086840F400202A
:10275000086040F60001C4F20201086820F470002D
:102760000860086840F42000086040F62401C4F2C4
:102770000201086820F47F400860086840F40840BF
:10278000086044F60C41C4F2000140F28360086026
:1027900044F60041C4F20001086840F00C000860F3
:1027A000086840F001000860086840F020000860F8
:1027B000342000F04DFA80BD80B540F2A800C2F28E
:1027C0000200007840F20C01C2F20201097888424E
:1027D0000ED0FFE740F2A800C2F20200017840F2FA
:1027E0000C00C2F2020001700078FFF7DDFEFFE787
:1027F00040F2A900C2F20200007840F20D01C2F2DC
:102800000201097888420ED0FFE740F2A900C2F227
:102810000200017840F20D00C2F20200017000785F
:10282000FFF7D6FEFFE740F2AA00C2F202000078EE
:1028300040F20E01C2F20201097888420ED0FFE791
:1028400040F2AA00C2F20200017840F20E00C2F289
:10285000020001700078FFF7CFFEFFE740F288002A
:10286000C2F20200007840F20F01C2F202010978C0
:1028700088420ED0FFE740F28800C2F202000178E1
:1028800040F20F00C2F2020001700078FFF7C8FEAC
:10289000FFE780BD0000000080B582B001900220FB
:1028A0000121FFF715FB00200090FFE70198009938
:1028B000405C50B1FFE701980099405C00F0ACF932
:1028C000FFE7009801300090F0E702B080BD000003
:1028D00080B543F63001C4F20201086840F00800F8
:1028E000086040F60041C4F20201086820F470203C
:1028F0000860086840F42020086040F62441C4F2D3
:102900000201086820F0FF000860086840F07700C6
:10291000086043F64001C4F20201086840F48020D8
:10292000086044F60C01C4F2000140F283600860C4
:1029300044F60001C4F20001086840F02C00086071
:10294000086840F001000860272000F081F980BD90
:1029500080B582B0019002200621FFF7B9FA00206D
:102960000090FFE701980099405C50B1FFE70198A3
:102970000099405C00F050F9FFE7009801300090AA
:10298000F0E702B080BD000080B582B00190022067
:102990000A21FFF79DFA00200090FFE701980099B7
:1029A000405C50B1FFE701980099405C00F034F9B9
:1029B000FFE7009801300090F0E702B080BD000012
:1029C00080B582B0019002200E21FFF781FA00202D
:1029D0000090FFE701980099405C50B1FFE7019833
:1029E0000099405C00F018F9FFE700980130009072
:1029F000F0E702B080BD000080B584B08DF80F0014
:102A000040F61401C4F202010191086840F480709C
:102A100008600A20FFF74CF91421C4F2020108688B
:102A200020F0F0009DF80F2002F00F0240EA0210A3
:102A3000086001200290FFF73BF9019A02981168A3
:102A400021F480711160FFF733F904B080BD0000FC
:102A500080B582B00220012100916422019200F031
:102A600027F80099019A084600F022F802B080BDCC
:102A700080B582B00220012100910022019200F075
:102A800017F80099019A084600F012F802B080BDCC
:102A900080B582B00220002100913222019200F024
:102AA00007F80099019A012000F002F802B080BDF9
:102AB00082B08DF807008DF806108DF805209DF87E
:102AC000050040F2E731484345F62941C0F28F2125
:102AD000A0FB0110ADF802009DF8070001281DD1F0
:102AE000FFE79DF8060060B1FFE7BDF80200342162
:102AF000C4F2010108603821C4F20101002008601D
:102B00000BE03421C4F2010100200860BDF802008E
:102B10003821C4F201010860FFE722E09DF80700B8
:102B200002281DD1FFE79DF8060060B1FFE7BDF860
:102B300002003C21C4F2010108604021C4F20101FD
:102B4000002008600BE03C21C4F201010020086075
:102B5000BDF802004021C4F201010860FFE7FFE771
:102B6000FFE702B07047000080B543F63001C4F2C1
:102B70000201086840F0070008600021C4F2020169
:102B8000086840F4AA4008600421C4F20201086801
:102B900008600821C4F20201086840F47F40086020
:102BA0000C21C4F20201086840F42A40086040F693
:102BB0000001C4F20201086840F4A020086040F659
:102BC0000401C4F202010868086040F60801C4F27A
:102BD000020108684FF60072C0F20F02104308604D
:102BE00040F60C01C4F2020108684AF60022C0F265
:102BF0000A02104308600220FFF772F80620FFF770
:102C00006FF80F20FFF76CF82820FFF769F8012014
:102C1000FFF766F880BD000080B582B08DF8070030
:102C200040F61401C4F20201086840F40070086024
:102C30009DF807000009FFF7DFFE9DF8070000F090
:102C40000F00FFF7D9FE02B080BD000000000000B9
:102C500081B08DF803009DF9030000280ED4FFE732
:102C60009DF9031001F01F02012090404A094EF225
:102C70000011CEF2000141F82200FFE701B07047D9
:102C800080B59AB0002019904EF21401CEF20001E6
:102C90006FF07F4008604EF21001CEF2000108682C
:102CA00040F005000860FFF75FFFFFF715FDFFF735
:102CB0000FFEFFF73DFDFFF7D7F9FFF7F1FAFFF73A
:102CC000DFFBFFF7C1FCFFF717FC43F6A130C0F6AE
:102CD0000000FFF7E1FD43F6CF30C0F60000FFF73C
:102CE00037FEFFE7FFF71CF9FFF716FAFFF764F866
:102CF00040F29400C2F202000078F8B1FFE740F21F
:102D00009401C2F202010020087040F29800C2F261
:102D10000200026840F2A000C2F20200036840F222
:102D2000AB00C2F20200089043F6A731C0F60001E2
:102D3000FDF73EFB0898FFF7AFFDFFE740F2840088
:102D4000C2F20200006848B9FFE740F60041C4F251
:102D50000001086820F001000860FFE740F28400ED
:102D6000C2F202000068012803D1FFE7FFF77CF9F7
:102D7000FFE740F28400C2F202000068022809D195
:102D8000FFE740F60041C4F20001086820F00100AE
:102D90000860FFE740F28C00C2F2020000680128E0
:102DA00040F03381FFE7FFF707FD40F29000C2F2E9
:102DB00002000068012813D1FFE7FFF749FE43F640
:102DC0008430C0F60000FFF7C3FD43F69D30C0F627
:102DD00000000790FFF7D8FD0798FFF7F1FD13E11A
:102DE00040F29000C2F202000068022809D1FFE719
:102DF000FFF72AF943F6D430C0F60000FFF7A8FD2C
:102E000001E140F29000C2F202000068032809D1FB
:102E1000FFE7FFF74DF843F6B530C0F60000FFF7C7
:102E200097FDEFE040F29000C2F202000068042833
:102E300013D1FFE7FFF72CFE43F6C230C0F60000C7
:102E4000FFF786FD43F68930C0F600000690FFF7D5
:102E50009BFD0698FFF7B4FDD3E040F29000C2F26C
:102E600002000068052813D1FFE7FFF701FE43F6D3
:102E7000CF30C0F60000FFF76BFD43F69230C0F68E
:102E800000000590FFF780FD0598FFF799FDB7E07A
:102E900040F29000C2F20200006806280ED1FFE75F
:102EA00040F2A400C2F202000068FEF735FF43F6CC
:102EB0009530C0F60000FFF767FDA0E040F29000FB
:102EC000C2F20200006807280ED1FFE740F2A4001A
:102ED000C2F202000068FEF72BFF43F69930C0F6FD
:102EE0000000FFF751FD89E040F29000C2F20200BD
:102EF000006808280ED1FFE740F2A400C2F20200E9
:102F00000068FEF721FF43F68D30C0F60000FFF7A2
:102F10003BFD72E040F29000C2F202000068092816
:102F20000ED1FFE740F2A400C2F202000068FEF7F3
:102F300017FF43F69130C0F60000FFF725FD5BE078
:102F400040F29000C2F2020000680A280ED1FFE7AA
:102F500040F2A400C2F202000068FEF7DDFE43F674
:102F60009530C0F60000FFF72BFD44E040F29000E2
:102F7000C2F2020000680B280ED1FFE740F2A40065
:102F8000C2F202000068FEF7D3FE43F69930C0F6A5
:102F90000000FFF715FD2DE040F29000C2F20200A4
:102FA00000680C280ED1FFE740F2A400C2F2020034
:102FB0000068FEF7C9FE43F68D30C0F60000FFF74B
:102FC000FFFC16E040F29000C2F2020000680D28FB
:102FD0000ED1FFE740F2A400C2F202000068FEF743
:102FE000BFFE43F69130C0F60000FFF7E9FCFFE7B3
:102FF000FFE7FFE7FFE7FFE7FFE7FFE7FFE7FFE7A1
:10300000FFE7FFE7FFE7FFE71DE040F28C00C2F2B9
:1030100002000068B0B9FFE740F63441C4F2000195
:103020000020086040F63841C4F20001086040F614
:103030003C41C4F20001086040F64041C4F2000186
:103040000860FFE7FFE740F27C00C2F20200006880
:10305000012835D1FFE7FFF70BFD46F65310C0F20C
:103060000A00CDF85F0046F66360C5F2793017902C
:1030700000201690FFE71698049017A8FDF7DFF9D7
:103080000146049888421AD2FFE7169917A8405CB7
:1030900044F62801C4F200010860FFE744F61C0072
:1030A000C4F200000068C1B20020B0EBD11F01D112
:1030B000FFE7F3E7FFE7169801301690DBE73AE009
:1030C00040F27C00C2F20200006898BBFFE746F6BF
:1030D0004E70C0F20A00CDF8530046F66360C4F6A5
:1030E0007960149000201390FFE71398039014A8C0
:1030F000FDF7A5F90146039888421AD2FFE7139914
:1031000014A8405C44F62801C4F200010860FFE7FF
:1031100044F61C00C4F200000068C1B20020B0EB0D
:10312000D11F01D1FFE7F3E7FFE7139801301390B8
:10313000DBE7FFE7FFE740F28000C2F20200006831
:10314000012839D1FFE700208DF8480045F26F31A2
:10315000C0F66921119147F26121C6F66F211091E5
:1031600046F66961C7F266210F910E90FFE70E984F
:1031700002900FA8FDF763F90146029888421AD21F
:10318000FFE70E990FA8405C44F62801C4F2000145
:103190000860FFE744F61C00C4F200000068C1B2FA
:1031A0000020B0EBD11F01D1FFE7F3E7FFE70E9856
:1031B00001300E90DBE740E040F28000C2F20200F6
:1031C0000068C8BBFFE700208DF8340044F66F614B
:1031D000C0F66F210C9147F26121C6F66F210B9169
:1031E00046F66961C7F266210A910990FFE70998DE
:1031F00001900AA8FDF723F90146019888421AD2E6
:10320000FFE709990AA8405C44F62801C4F20001CE
:103210000860FFE744F61C00C4F200000068C1B279
:103220000020B0EBD11F01D1FFE7F3E7FFE70998DA
:1032300001300990DBE7FFE7FFE753E55FEA400C69
:1032400008BF91F0000F4FEA8C234FEAC12243EAF6
:1032500051514FEA1C5018BF00F5F0404FEA3000C2
:1032600018BF41F000415FEA6C5C00F02980BCF1BE
:10327000FF3F08BF40F080407047130C06BF1204A8
:103280004FF0100C4FF0000C130E04BF12020CF1A3
:10329000080C130F04BF12010CF1040C930F04BFB0
:1032A00092000CF1020CD30F04BF52000CF1010C80
:1032B00011464FF00002A0F11F00A0EB0C00704778
:1032C00011F0004F08BF704731F000413FF4D5AF17
:1032D0000B0C06BF09044FF0100C4FF0000C0B0E46
:1032E00004BF09020CF1080C0B0F04BF09010CF11B
:1032F000040C8B0F04BF89000CF1020CCB0F04BF30
:1033000049000CF1010CCCF1200322FA03F341EA4D
:10331000030102FA0CF2A0EB0C0000F1010070476F
:1033200023F07F4720F07F4C80EA030000F000404C
:10333000ACEB070303F57C5303F1FF032DE9804950
:1033400009B44FEA144324EA03484FEA154B25EA2F
:103350000B4E0FF2042606EB13273E7803FB06679D
:10336000C7F5000707FB06F64FEAD64606F1020648
:103370004FEA543707FB066CCCF1005C4FEA1C4760
:103380002CEA074C0CFB06F507FB06F404EB15468C
:103390004FEA961649085FEA320234BF00204FF028
:1033A00000404FEAD13706FB07FC4FEA1C4C0CFBF0
:1033B0000BF7D21B03FB0CF761EB07010CFB0EF7BD
:1033C000B0EB074072EB17420CFB08F734BFA2EBDF
:1033D0000742B2EB074261EB17414FEA0C444FEA58
:1033E000910706FB07FC4FEA1C4C0CFB0BF7B0EBFC
:1033F000C74072EB573203FB0CF734BFA2EBC74256
:10340000B2EBC74261EB57310CFB0EF7B0EBC700D4
:1034100072EB57720CFB08F734BFA2EBC702B2EB9A
:10342000C70261EB57714FEA816141EA92114FEA9D
:10343000826242EA90124FEA806004EBCC04039F60
:103440004FEAD13706FB07FC4FEA1C4C0CFB0BF78D
:10345000D21B03FB0CF761EB07010CFB0EF7B0EB83
:10346000074072EB17420CFB08F734BFA2EB074290
:10347000B2EB074261EB17414FEA8C5504EB9C24F9
:103480004FEA910706FB07FC4FEA1C4C0CFB0BF7BD
:10349000B0EBC74072EB573203FB0CF734BFA2EB23
:1034A000C742B2EBC74261EB57310CFB0EF7B0EBF2
:1034B000C70072EB57720CFB08F734BFA2EBC702D0
:1034C000B2EBC70261EB57714FEA816141EA921199
:1034D0004FEA826242EA90124FEA806015EB4C2577
:1034E00044F100044FEAD13706FB07FC4FEA1C4CBD
:1034F0000CFB0BF7D21B03FB0CF761EB07010CFB7A
:103500000EF7B0EB074072EB17420CFB08F734BF25
:10351000A2EB0742B2EB074261EB17414FEA813160
:1035200041EA92414FEA823242EA90424FEA8030C9
:103530004FEA0C7615EB1C1544F1000448EA0343EE
:103540004EEA0B484FF0000EB2EB080C71EB03078C
:1035500024BF624639464EEB0E0E4FF0000B0018AA
:10356000524149414BEB0B0BB2EB080C71EB0307DB
:103570007BF1000B24BF624639464EEB0E0E4FF036
:10358000000B0018524149414BEB0B0BB2EB080CFE
:1035900071EB03077BF1000B24BF624639464EEB0B
:1035A0000E0E51EA020718BF46F0010616EB0E7622
:1035B00055F1000254F1000103D5BDE88901BDE8D1
:1035C0000088BDE88901BDE80048B619524141EBC9
:1035D0000101A3F10103704780807F7E7D7C7B7AAF
:1035E0007978777676757473727171706F6E6E6DAF
:1035F0006C6C6B6A6A696868676666656464636355
:1036000062616160605F5F5E5E5D5D5C5C5B5B5ADA
:103610005A59595858575756565555555454535347
:1036200052525251515050504F4F4F4E4E4D4D4DA2
:103630004C4C4C4B4B4B4A4A4A49494948484847ED
:10364000474747464646454545444444444343432B
:1036500043424242424141419C46002B30D47700D4
:103660002BD04FEA37071CB503B44FF010004FF0D2
:103670001001BAF1000F06D0BCF1000FDCBF40F022
:10368000080040F008014FF000000FBCBDE81040FA
:103690000BF1010BBBF1010F08BF5FEA170722BF57
:1036A00012F1010211F101014FF0004143F1000359
:1036B00000F0004043EA00007047F9D35708D0E714
:1036C00046EA06464FEA164613F1400F1FDD13F196
:1036D000200FDFBF16430A46002120335B42BED0D5
:1036E000C3F1200746EA06464FEA164602FA07F7F4
:1036F00046EA070622FA03F2C3F1200701FA07F7A8
:1037000042EA070221FA03F14FF00003A7E746EA75
:10371000020646EA06464FEA164646EA0106BCBFDE
:1037200046EA0646360C4FF000034FF000024FF019
:10373000000194E72DE9804C70B49A46934691E8D5
:10374000380007C831EA400C48BF34EA430C03D5BF
:10375000FFF7E6FDFFF780FFF0BCBDE8008C2DE928
:10376000804C70B49A46934691E8380007C810F030
:10377000804F08BF13F0804F03D100F005F8FFF72A
:103780006BFFF0BCBDE8008C20F07F4723F07F4C3E
:1037900080EA030000F0004007EB0C03A3F57C5324
:1037A000A3F1FE0392F0000F00F0B38095F0000F3C
:1037B00000F077802DE901494FEA114021EA0048E5
:1037C0004FEA144624EA064700FB06FC08FB06F60F
:1037D00007FB08F818EB06484CEB164C00FB07F704
:1037E00018EB07484CEB17404FEA124B22EA0B4EFE
:1037F0004FEA154625EA06470BFB06FC0EFB06F6CC
:1038000007FB0EFE1EEB064E4CEB164C0BFB07F7B0
:103810001EEB074E4CEB174B18EB0B0840F100006A
:1038200018EB0E0B58EB000840F100008F1A4FF018
:1038300000014FF000063CBFC943661B14BFB5EB47
:10384000040C00213CBFC943F61B4FEA174427EA8A
:1038500004454FEA1C472CEA074C04FB076205FBB2
:1038600007F70CFB05F616EB074642EB174204FB85
:103870000CFC16EB0C4642EB1C421BEB060658EB0D
:10388000020241414EEA8E0E46EA9E0601D5BDE88F
:103890000189B619524141EB0101A3F10103BDE8D1
:1038A00001894FEA144524EA05464FEA114721EA07
:1038B000074C05FB07F406FB07F70CFB06F111EBC1
:1038C000074144EB174405FB0CFC11EB0C4144EBA6
:1038D0001C444FEA124722EA074C05FB07F206FB9D
:1038E00007F70CFB06F616EB074642EB174205FB03
:1038F0000CFC16EB0C4642EB1C456A1854F1000117
:1039000048BF7047B619524141EB0101A3F10103D1
:10391000704795F0000F37D04FEA114221EA024676
:103920004FEA144724EA074C02FB07F106FB07F7AE
:103930000CFB06F414EB074441EB174102FB0CFCB3
:1039400014EB0C4441EB1C414FEA154725EA074CA8
:1039500002FB07F506FB07F70CFB06F616EB07461E
:1039600045EB174502FB0CFC16EB0C4645EB1C42E5
:10397000121951F1000148BF7047B619524141EB8D
:103980000101A3F1010370474FEA144524EA0546FB
:103990004FEA114721EA074C05FB07F106FB07F741
:1039A0000CFB06F212EB074241EB174105FB0CFC46
:1039B00012EB0C4251EB1C414FF0000648BF704720
:1039C000921841EB0101A3F10103704703B4019880
:1039D0004100009850EAC12018BF04204A0D18BFCA
:1039E00040F0010040F2FF72B2EB515F08BF40F0BF
:1039F0000200012808BF052002B0704730380A28AD
:103A000001D20120704700207047000010B5002946
:103A10000AD00878002807D005487844FDF7E8FD6B
:103A2000002801D0002010BD0248784410BD0000DD
:103A3000E2010000DA01000010B500290AD0087880
:103A4000002807D005487844FDF7D2FD002801D0B2
:103A5000002010BD0248784410BD0000C6020000DE
:103A6000BE020000F1EE100A4FF6FF71C0F2C03145
:103A700020EA010040F04070E1EE100A7047FDF7C7
:103A800071B9FDF7A5BA00000000000000000000B9
:103A90003031323334353637383941424344454684
:103AA000403058003031323334353637383961627E
:103AB0006364656640307800040000080000000080
:103AC000000000020001000010303132333435367E
:103AD000373839616263646566787000303132333B
:103AE0003435363738394142434445465850000052
:103AF00002400000000000A000000000054000009F
:103B0000000000C8000000000C4000000000409CC5
:103B100000000000194000000020BCBE00000000B2
:103B200034400000BFC91B8E00000004B5400000F7
:103B3000504BCFD06607E2CF010000006C4100007F
:103B40003E8251AADFEEA73401000000D9420000F6
:103B5000DCB5A0E23A301F97FFFFFFFFB44500003D
:103B6000FD25A0C8E9A3C14FFFFFFFFFFF3F0000F5
:103B70000000008000000000FF3F00000000008007
:103B800000000000476F2121003530250037302527
:103B900000393025003335250035352500313030EA
:103BA0000030303A303000253032643A253032640B
:103BB00000253364007269676800494E46523A73C3
:103BC00069006261636B00494E46523A6E6F007342
:103BD000746F70006C65667400000000283D00087A
:103BE00000000220100000005C020008383D0008C0
:103BF00010000220B00600007C0200081001000046
:103C000043000000F8FFFFFF0040404040404040BC
:103C1000404041414141414040404040404040409F
:103C20004040404040404040400502020202020243
:103C30000202020202020202022020202020202092
:103C400020202002020202020202909090909090A6
:103C50001010101010101010101010101010101064
:103C600010101010020202020202888888888888D8
:103C700008080808080808080808080808080808C4
:103C800008080808020202024000000000000000CC
:103C90000000000000000000000000000000000024
:103CA0000000000000000000000000000000000014
:103CB0000000000000000000000000000000000004
:103CC00000000000000000000000000000000000F4
:103CD00000000000000000000000000000000000E4
:103CE00000000000000000000000000000000000D4
:103CF00000000000000000000000000000000000C4
:103D00000000000000000000000000001C00000097
:103D100043000000F8FFFFFF0C0000000E00000051
:103D20000F0000002E000000494E46523A206E6FF0
:083D300000000000FFFFFFFF8F
:04000005080003717B
:00000001FF
