:020000040800F2
:1000000060060220A9020008B1020008B30200083D
:10001000B5020008B7020008B9020008000000009D
:10002000000000000000000000000000BB0200080B
:10003000BD02000800000000BF020008C102000865
:10004000C3020008C3020008C3020008C30200087C
:10005000C3020008C3020008C3020008C30200086C
:10006000C3020008C3020008C3020008C30200085C
:10007000C3020008C3020008C3020008C30200084C
:10008000C3020008C3020008C3020008C30200083C
:10009000C3020008C3020008C3020008C30200082C
:1000A000C3020008C3020008C3020008C30200081C
:1000B000C3020008C3020008C3020008C30200080C
:1000C000C3020008C3020008C3020008C3020008FC
:1000D000C3020008C3020008C3020008C3020008EC
:1000E000C3020008C3020008C3020008C3020008DC
:1000F000C3020008C3020008C3020008C3020008CC
:10010000C3020008C3020008C3020008C3020008BB
:10011000C3020008C3020008C3020008C3020008AB
:10012000C3020008C3020008C3020008C30200089B
:10013000C3020008C3020008C3020008C30200088B
:10014000C3020008C3020008C3020008C30200087B
:10015000C3020008C3020008C3020008C30200086B
:10016000C3020008C3020008C3020008C30200085B
:10017000C3020008C3020008C30200080000000018
:10018000C3020008C3020008C3020008C30200083B
:10019000C3020008C3020008C3020008C30200082B
:1001A000C3020008C3020008C3020008C30200081B
:1001B000C3020008C3020008C3020008C30200080B
:1001C000C3020008C302000800000000C3020008C8
:1001D000C3020008C3020008C3020008C3020008EB
:1001E000C3020008C3020008C3020008C3020008DB
:1001F000C3020008C302000800F002F800F044F84F
:1002000014A696E8000CB244B344DA4501D100F0DC
:100210003BF8BAE80F000FA696E83000A5EB0405FE
:1002200004EB0607AAEB0704A7F101074FEA15152F
:100230004FEA3414A4F10104AC4201D300F024F8D5
:1002400013F0010F18BFFB1A43F0010300F001F88F
:10025000DBE71847640200007402000070470000EA
:100260000023002400250026103A28BF78C1FBD8BF
:10027000520728BF30C148BF0B6070471FB500F060
:100280000EF91FBD10B510BD00F031F81146FFF793
:10029000F5FF00F0ADF800F04FF803B4FFF7F2FF00
:1002A00003BC00F057F800000948804709480047A0
:1002B000FEE7FEE7FEE7FEE7FEE7FEE7FEE7FEE716
:1002C000FEE7FEE704480549054A064B7047000073
:1002D00069030008F901000860000220600602209E
:1002E0006002022060020220704770477047754626
:1002F00000F02CF8AE4605006946534620F0070092
:10030000854618B020B5FFF7DDFFBDE820404FF06F
:1003100000064FF000074FF000084FF0000BAC460E
:10032000ACE8C009ACE8C009ACE8C009ACE8C00959
:1003300021F007018D46704710B50446AFF30080E9
:100340002046BDE81040FFF7A8BF000000487047F6
:100350000000022001491820ABBEFEE72600020083
:1003600070470000000000004EF68851CEF20001F8
:10037000086840F47000086070470000000000004A
:1003800080B582B0019000200090FFE700980199AD
:10039000884209D2FFE74FF47A5000F009F8FFE7EE
:1003A000009801300090F1E702B080BD000000002D
:1003B00081B00090009801384EF21401CEF2000195
:1003C00008604EF21801CEF2000100200860FFE73D
:1003D0004EF21000CEF20000006800F480310020E0
:1003E000B0EB114F01D1FFE7F2E701B07047000019
:1003F00080B584B00020039043F63001C4F20201BE
:10040000086840F00200086040F20041C4F20201B6
:10041000086820F003000860086840F001000860E8
:1004200040F20441C4F20201086820F001000860B3
:1004300040F20841C4F20201086840F0030008607D
:1004400040F20C41C4F20201086820F00300086089
:100450004EF21401CEF200016FF07F4008604EF2C0
:100460001001CEF20001086840F005000860FFE7C7
:1004700040F21441C4F202010191086840F0010009
:1004800008604FF47A700290FFF77AFF019A0298A1
:10049000116821F001011160FFF772FFE8E7F1EE4A
:1004A000100A4FF6FF71C0F2C03120EA010040F09F
:1004B0004070E1EE100A7047C804000800000220F6
:0804C000600600006002000864
:04000005080002A944
:00000001FF
