:020000040800F2
:1000000068060220A9020008B1020008B302000835
:10001000B5020008B7020008B9020008000000009D
:10002000000000000000000000000000BB0200080B
:10003000BD02000800000000BF020008C102000865
:10004000C3020008C3020008C3020008C30200087C
:10005000C3020008C3020008C3020008C30200086C
:10006000C3020008C3020008C3020008C30200085C
:10007000C3020008C3020008C3020008C30200084C
:10008000C3020008C3020008C3020008C30200083C
:10009000C3020008C3020008C3020008C30200082C
:1000A000C3020008C3020008C3020008C30200081C
:1000B000C3020008C3020008C3020008C30200080C
:1000C000C3020008C3020008C3020008C3020008FC
:1000D000C3020008C3020008C3020008810300082D
:1000E000C3020008C3020008C3020008C3020008DC
:1000F000C3020008C3020008C3020008C3020008CC
:10010000C3020008C3020008C3020008C3020008BB
:10011000C3020008C3020008C3020008C3020008AB
:10012000C3020008C3020008C3020008C30200089B
:10013000C3020008C3020008C3020008C30200088B
:10014000C3020008C3020008C3020008C30200087B
:10015000C3020008C3020008C3020008C30200086B
:10016000C3020008C3020008C3020008C30200085B
:10017000C3020008C3020008C30200080000000018
:10018000C3020008C3020008C3020008C30200083B
:10019000C3020008C3020008C3020008C30200082B
:1001A000C3020008C3020008C3020008C30200081B
:1001B000C3020008C3020008C3020008C30200080B
:1001C000C3020008C302000800000000C3020008C8
:1001D000C3020008C3020008C3020008C3020008EB
:1001E000C3020008C3020008C3020008C3020008DB
:1001F000C3020008C302000800F002F800F044F84F
:1002000014A696E8000CB244B344DA4501D100F0DC
:100210003BF8BAE80F000FA696E83000A5EB0405FE
:1002200004EB0607AAEB0704A7F101074FEA15152F
:100230004FEA3414A4F10104AC4201D300F024F8D5
:1002400013F0010F18BFFB1A43F0010300F001F88F
:10025000DBE71847E8050000F805000070470000DC
:100260000023002400250026103A28BF78C1FBD8BF
:10027000520728BF30C148BF0B6070471FB500F060
:10028000C9FA1FBD10B510BD00F031F81146FFF7D7
:10029000F5FF00F089FA00F04FF803B4FFF7F2FF22
:1002A00003BC00F057F800000948804709480047A0
:1002B000FEE7FEE7FEE7FEE7FEE7FEE7FEE7FEE716
:1002C000FEE7FEE704480549054A064B7047000073
:1002D00069030008F901000868000220680602208E
:1002E0006802022068020220704770477047754616
:1002F00000F02CF8AE4605006946534620F0070092
:10030000854618B020B5FFF7DDFFBDE820404FF06F
:1003100000064FF000074FF000084FF0000BAC460E
:10032000ACE8C009ACE8C009ACE8C009ACE8C00959
:1003300021F007018D46704710B50446AFF30080E9
:100340002046BDE81040FFF7A8BF000000487047F6
:100350000000022001491820ABBEFEE72600020083
:1003600070470000000000004EF68851CEF20001F8
:10037000086840F47000086070470000000000004A
:1003800044F61C00C4F200000068800600280BD56B
:10039000FFE744F62400C4F20000006840F2600168
:1003A000C2F202010870FFE7704700000000000081
:1003B00080B582B0019000200090FFE7009801997D
:1003C000884209D2FFE74FF47A5000F025F8FFE7A2
:1003D000009801300090F1E702B080BD00000000FD
:1003E00080B582B08DF8070040F61401C4F2020116
:1003F000086820F4007008609DF80700000900F00C
:100400001BF99DF8070000F00F0000F015F902B08D
:1004100080BD00000000000081B00090009801380D
:100420004EF21401CEF2000108604EF21801CEF235
:10043000000100200860FFE74EF21000CEF200003D
:10044000006800F480310020B0EB114F01D1FFE7CC
:10045000F2E701B07047000040F26000C2F2020013
:100460000078B42816DCFFE740F26000C2F2020018
:1004700000784FF4C851484341F2C261C0F26C1198
:10048000A0FB011000F5C86040F63441C4F2000141
:100490000860FFE77047000080B582B001900198C6
:1004A000012804D1FFE78020FFF79AFF08E00198B8
:1004B000022804D1FFE7C020FFF792FFFFE7FFE724
:1004C00002B080BD0000000043F63001C4F202011A
:1004D000086840F0010008600021C4F202010868C9
:1004E00040F0AA0008602021C4F20201086842F22C
:1004F00022221043086043F64001C4F2020108685A
:1005000040F00800086040F62841C4F200010420D1
:10051000086040F62C41C4F200014FF6FF1008605D
:1005200040F60041C4F20001086840F00100086094
:1005300040F61841C4F20001086846F26002104318
:10054000086040F61C41C4F20001086810430860CE
:1005500040F62041C4F20001086841F21112104334
:10056000086040F61441C4F20001086840F0010040
:10057000086070470000000080B582B001908020C4
:10058000FFF72EFF00200090FFE701980099405CE4
:1005900050B1FFE701980099405C00F0D1F8FFE707
:1005A000009801300090F0E70120FFF775FF02B0DE
:1005B00080BD00000000000080B543F63001C4F2A9
:1005C0000201086840F00800086040F60041C4F2EB
:1005D0000201086820F470200860086840F42020B8
:1005E000086040F62441C4F20201086820F0FF00D0
:1005F0000860086840F07700086043F64001C4F2E4
:100600000201086840F48020086044F60C01C4F23E
:10061000000140F28360086044F60001C4F200016A
:10062000086840F02C000860086840F0010008608D
:10063000272000F0A1F880BD80B584B08DF80F00B0
:1006400040F61401C4F202010191086840F4807080
:1006500008600A20FFF7ACFE1421C4F2020108680A
:1006600020F0F0009DF80F2002F00F0240EA021087
:10067000086001200290FFF79BFE019A0298116822
:1006800021F480711160FFF793FE04B080BD00007B
:1006900080B543F63001C4F20201086840F007005B
:1006A00008600021C4F20201086840F4AA40086012
:1006B0000421C4F20201086808600821C4F20201A2
:1006C000086840F47F4008600C21C4F20201086809
:1006D00040F42A40086040F60001C4F202010868B4
:1006E00040F4A020086040F60401C4F2020108684A
:1006F000086040F60801C4F2020108684FF6007273
:10070000C0F20F021043086040F60C01C4F202016F
:1007100008684AF60022C0F20A021043086002206C
:10072000FFF75EFE0620FFF75BFE0F20FFF758FE87
:100730002820FFF755FE0120FFF752FE80BD000084
:1007400080B582B08DF8070040F61401C4F20201B2
:10075000086840F4007008609DF807000009FFF782
:100760006BFF9DF8070000F00F00FFF765FF02B078
:1007700080BD00000000000081B08DF803009DF9ED
:10078000030000280ED4FFE79DF9031001F01F02BB
:10079000012090404A094EF20011CEF2000141F8CA
:1007A0002200FFE701B0704780B582B000200190C1
:1007B0004EF21401CEF200016FF07F4008604EF25D
:1007C0001001CEF20001086840F005000860FFF754
:1007D0005FFFFFF779FEFFF7EFFE40F62E00C0F651
:1007E0000000FFF7C9FEFFE7FFF736FE40F6344191
:1007F000C4F200014FF4C860086040F63841C4F20A
:100800000001086040F63C41C4F2000141F2707002
:100810000860E9E7F1EE100A4FF6FF71C0F2C0314F
:1008200020EA010040F04070E1EE100A7047686F66
:100830006C61206D756E646F000000004C0800084C
:0C084000000002206806000060020008B2
:04000005080002A944
:00000001FF
